:020000040800F2
:10000000606100205502000829200008B11F000887
:1000100025200008F50A0008692E000800000000ED
:100020000000000000000000000000009D0100082A
:10003000971E000800000000F10100089D2800083C
:100040006F0200086F0200086F0200086F020008CC
:100050006F0200086F0200086F0200086F020008BC
:100060006F0200086F0200086F0200086F020008AC
:100070006F020008051B00086F0200082D1B000816
:100080006F020008691B00086F0200086F02000879
:10009000810C0008B90C00086F0200086F0200080C
:1000A0006F0200086F0200086F0200086F0200086C
:1000B000752900086F020008F92900086F0200087E
:1000C0006F0200086F0200086F0200086F0200084C
:1000D0006F0200086F0200086F0200086F0200083C
:1000E0006F0200086F0200086F0200086F0200082C
:1000F0006F0200086F0200086F0200086F0200081C
:100100006F0200086F0200086F0200086F0200080B
:100110006F0200086F0200086F020008792A0008C9
:100120006F0200086F0200086F0200086F020008EB
:100130006F0200086F0200086F0200086F020008DB
:100140000D0E00086F0200086F0200086F02000821
:100150006F0200086F0200086F0200086F020008BB
:100160006F0200086F0200086F0200086F020008AB
:100170006F0200086F0200086F0200086F0200089B
:100180006F0200086F020008DFF80CD000F05AFB85
:1001900000480047313E0008606100202A4B196882
:1001A0000868B0E8F04F80F30988BFF36F8F4FF015
:1001B000000080F3118870470000000006480068C6
:1001C000006880F3088862B661B6BFF34F8FBFF353
:1001D0006F8F00DF00BF00BF08ED00E0DFF80C000C
:1001E000016841F470010160704700BF88ED00E0D4
:1001F000EFF30980BFF36F8F134B1A681EF0100FD7
:1002000008BF20ED108A20E9F04F106008B44FF0CD
:10021000500080F31188BFF34F8FBFF36F8F04F04E
:100220005BFC4FF0000080F3118808BC1968086877
:10023000B0E8F04F1EF0100F08BFB0EC108A80F34A
:100240000988BFF36F8F704750010020EFF30580DE
:10025000704700000648804706480047FEE7FEE773
:10026000FEE7FEE7FEE7FEE7FEE7FEE7FEE7FEE766
:10027000A5280008890100082DE9F05F0546002047
:1002800092469B4688460646814640241BE0284607
:1002900041464746224600F03EFA53465A46C01AA7
:1002A000914110D311461846224600F025FA2D1A26
:1002B00067EB01084F4622460120002100F01CFA9E
:1002C00017EB00094E41201EA4F10104DFDC484673
:1002D00031462A464346BDE8F09F40EA01039B07AA
:1002E00003D009E008C9121F08C0042AFAD203E0AB
:1002F00011F8013B00F8013B521EF9D27047D2B20F
:1003000001E000F8012B491EFBD270470022F6E7FE
:1003100010B513460A4604461946FFF7F0FF20467B
:1003200010BD421C10F8011B0029FBD1801A704738
:10033000034611F8012B00F8012B002AF9D11846C9
:1003400070472DE9FE4F804681EA0300C00F0C463E
:10035000009021F0004123F00045B8EB0200A941D4
:1003600005D24046214690461C460B46024623F0E5
:100370000040104347D0270DC7F30A00C3F30A51CA
:100380000290401A019040286BDAC3F3130040F446
:10039000801B0098924620B10023D2EB030A63EB46
:1003A0000B0B01985946C0F14002504600F0A4F9E9
:1003B00006460D4650465946019A00F0BCF910EB2E
:1003C00008006141002487EA115284EAE7731A4366
:1003D00040D0009A62B3019A012A4FEA075215DC15
:1003E000001B61EB02014FF0004202EA0752CDE927
:1003F0000042001C41F5801132462B4600F0BCF94A
:1004000003B0BDE8F08F40462146F9E7001B61EBE1
:100410000201001C41F5801300185B412018A2F571
:10042000001747EB030140EAD570B6196D4111E0A2
:100430006D084FEA360645EAC0754FEA0752001BC1
:1004400061EB0201001C41F5801149084FEA3000C0
:100450000019514132462B4603B0BDE8F04F00F081
:100460007CB90098012240000023D0EB020263EB2C
:10047000E073009821464FEAE074B8EB000061EBAE
:100480000401E9E783F000435BE781F0004158E7AE
:100490002DE9FE4F81EA030404F0004421F00041FD
:1004A00000944FF0000B23F0004350EA01045ED0AB
:1004B00052EA03045BD0C3F30A54C1F30A552C4437
:1004C000A4F2F3340194A0FB0254C1F3130141F4EC
:1004D0008011C3F3130343F4801301FB024400FBB8
:1004E000034E840A970A44EA815447EA8357A4FBDF
:1004F000076802958D0A05FB07854FEA932C04FBDC
:100500000C542705029D4FEA065847EA1637B5EB0B
:1005100008056EEB070C870E920E47EA811742EA38
:100520008312A7FB0201B6EB0B0164EB00042B0D59
:1005300043EA0C335E1844EB1C50DA465146E7FBA5
:100540000201C5F313044FEA0B3343EA14534FEA95
:100550000432019C43EA0603A4F10C040294009CBB
:10056000CDE900B400F008F903B0BDE8F08F002039
:100570000146F9E72DE9F04D81EA030404F0004B50
:1005800021F0004514464FF0000A23F0004150EAE4
:10059000050220D054EA01021DD0C5F30A570246D5
:1005A000C5F31303C1F31300C1F30A5640F48015D9
:1005B00043F48013A7EB0608101BD64608F2FD385B
:1005C00073EB050002D308F1010801E092185B41CA
:1005D000B8F1000F03DA00200146BDE8F08D0020DD
:1005E0004FF48011064684460EE0171B73EB050797
:1005F00005D3121B63EB050306434CEA010C4908C3
:100600004FEA300092185B4150EA0107EDD152EAFF
:10061000030012D082EA040083EA0501084305D0F2
:10062000101BAB4106D20122002306E000224FF04E
:10063000004302E06FF0010253101AEB06004CEB8E
:10064000085110EB0A0041EB0B01BDE8F04D00F042
:1006500084B80EB5C10F80EAE0700844CA070021D3
:1006600040F233438DE80E000A460B4600F084F852
:1006700003B000BD00F0004230F000400AD0C10DD0
:1006800001F56071C0F3160042EA0151C20840074B
:1006900011437047002001467047000030B5041E2A
:1006A00071F1000404DB4FF00044404264EB0101AF
:1006B000141E73F1000405DB1C464FF00043524248
:1006C00063EB0403994208BF904230BD30B50B463E
:1006D000014600202022012409E021FA02F59D4272
:1006E00005D303FA02F5491B04FA02F52844151E46
:1006F000A2F10102F1DC30BD202A04DB203A00FA2D
:1007000002F1002070479140C2F1200320FA03F368
:10071000194390407047202A04DB203A21FA02F066
:100720000021704721FA02F3D040C2F1200291402B
:10073000084319467047202A06DBCB17203A41FAB6
:1007400002F043EAE07306E041FA02F3D040C2F15E
:100750002002914008431946704710B5141E73F1EA
:10076000000408DA401C41F1000192185B411A4371
:1007700001D120F0010010BD2DE9F04D92469B46BD
:1007800011B1B1FA81F202E0B0FA80F22032904663
:10079000FFF7B2FF04460F4640EA0A0041EA0B01A8
:1007A00053465A46084313D0114653EA010019D064
:1007B000C8F140025046FFF7AEFF05460E465046D0
:1007C00059464246FFF798FF084305D0012004E050
:1007D00020463946BDE8F08D0020054346EAE07624
:1007E0002C4337430A986305E40AA0EB0800002273
:1007F000FD0A44EA47540A3002D500200146E9E7E1
:10080000010510196941DDE9084500196941BDE894
:10081000F04DA2E7C1F30A52C1F3130140F2FF33D6
:1008200041F480119A4202DA00200146704740F2FA
:1008300033439A42A2F2334202DC5242FFF76BBFCB
:10084000FFF75ABF064C074D06E0E06840F0010391
:1008500094E8070098471034AC42F6D3FFF798FCB1
:10086000884E0008A84E000870B58C1810F8015B7F
:1008700015F0070301D110F8013B2A1106D110F839
:10088000012B03E010F8016B01F8016B5B1EF9D13D
:100890002B0705D40023521E0DD401F8013BFAE7C3
:1008A00010F8013BCB1A921C03E013F8015B01F82E
:1008B000015B521EF9D5A142D8D3002070BD21B1F1
:1008C000826842F00102826003E0826822F0010245
:1008D0008260704721B1826842F48072826003E0D6
:1008E000826822F480728260704721B1826842F48B
:1008F0000072826003E0826822F4007282607047B6
:1009000030B50246002000235068104C20400D797D
:100910000C6844EA05242043506090680C4C204049
:10092000D1E903542C438D682C434D7944EA4504A6
:1009300020439060D06A20F470000C7D641EE4B205
:10094000234340EA0350D06230BD0000FFFEFFFCAD
:10095000FDF7FFC0F0B504460D4600200021092D2B
:1009600011DDE068A5F10A0606EB4607072606FA40
:1009700007F18843A5F10A0606EB460603FA06F1DD
:100980000843E0600CE0206905EB4507072606FAFE
:1009900007F1884305EB450603FA06F10843206199
:1009A000072A0FDA606B561E06EB86071F2606FA2B
:1009B00007F18843561E06EB860605FA06F1084342
:1009C000606322E00D2A0FDA206BD61F06EB860744
:1009D0001F2606FA07F18843D61F06EB860605FA9E
:1009E00006F10843206310E0E06AA2F10D0606EB71
:1009F00086071F2606FA07F18843A2F10D0606EBCB
:100A0000860605FA06F10843E062F0BD816841F010
:100A1000804181607047000038B10849096841F49D
:100A20000001074AC2F8041306E00449096821F4EA
:100A30000001034AC2F80413704700000423014078
:100A40000020014070B500BF2549481EB0F1807FED
:100A500001D301201BE0481E4FF0E02250615017E7
:100A60000F22002807DA13071D0E1E4B00F00F049B
:100A7000241F1D5503E013071C0E1B4B1C5400BF05
:100A800000204FF0E0229061072010610020002834
:100A9000DAD101F0F1FE00F0A7FF00F02DF800F030
:100AA00027F902F05DFA02F06FF800F067FC01F040
:100AB0002DFF01F071FF40F27121042001F07AFA5C
:100AC00003F096F900F03AFF4021084801F04FFA90
:100AD0000120074908704FF4967003F037F970BD94
:100AE0004090020018ED00E000E400E00000024049
:100AF0002901002000BFFEE700B58BB001210846A8
:100B000001F0C4FB0121480601F0D0FB09220C21B1
:100B1000594801F009FA09220B21574801F004FA5B
:100B20004FF4C050099002208DF828008DF829005C
:100B300000208DF82A0001208DF82B0009A94E48CD
:100B400001F0AAF914208DF8040000208DF80500AA
:100B500002208DF8060001208DF8070001A801F0A1
:100B600065FA15208DF8040000208DF8050004209A
:100B70008DF8060001208DF8070001A801F056FA53
:100B80003E4800F0AFF906A800F0E7FB00208DF822
:100B90001E0001208DF81F008DF8200000208DF828
:100BA00021008DF8220001208DF8230000208DF80F
:100BB0001A008DF81B000A208DF81C0001208DF80A
:100BC0001D000320ADF8180006A92C4800F0C3FA58
:100BD00000208DF8120001208DF8130000208DF800
:100BE000140044F22000ADF8080044F24000ADF8D3
:100BF0000A0044F26000ADF80C004FF48140ADF8FB
:100C00000E000020ADF8100001208DF8150002A89C
:100C100000F084F901208DF812008DF813000020F7
:100C20008DF8140044F2A000ADF8080044F2C000B2
:100C3000ADF80A0044F2E000ADF80C004FF4824039
:100C4000ADF80E000120ADF810008DF8150002A8D7
:100C500000F064F901220221084800F073FA012231
:100C60001021064800F06EFA01221146034800F0F8
:100C700069FA0BB000BD00000000024000640040B3
:100C800008B502210A4800F0CDF978B1094A0021DF
:100C9000074800F0EAFA07480069009005480FC8C5
:100CA00000F05CFC0221024800F0C8F808BD00001A
:100CB000006400408456002008B510210A4800F066
:100CC000B1F978B1094A0121074800F0CEFA074886
:100CD0000069009005480FC800F0D2FC10210248BE
:100CE00000F0ACF808BD000000640040845600200D
:100CF00000B58BB00121022001F0C8FA012188065D
:100D000001F0D4FA09220D213E4801F00DF9092223
:100D10000C213C4801F008F94FF4405002900220A9
:100D20008DF80C008DF80D0000208DF80E000120CC
:100D30008DF80F0002A9334801F0AEF840208DF87D
:100D4000040000208DF8050003208DF80600012026
:100D50008DF8070001A801F069F941208DF8040021
:100D6000294800F0BFF808A800F0F7FA00208DF835
:100D7000260001208DF827008DF828008DF8290025
:100D800000208DF82A0001208DF82B0000208DF81E
:100D900022008DF823000A208DF8240001208DF810
:100DA00025000320ADF8200008A9174800F0D3F96A
:100DB0000F208DF81A0001208DF81B0000208DF8FF
:100DC0001C0044F22000ADF8100042F22000ADF803
:100DD00014004FF40150ADF816000020ADF81800D3
:100DE00001208DF81D0004A800F098F801220221CE
:100DF000054800F0A7F901221146034800F0A2F9C6
:100E00000BB000BD000402400068004000B585B092
:100E10000221094800F006F958B10221064800F005
:100E20000DF86A460021044800F01FFA684600F0F9
:100E3000F1FC05B000BD000000680040B1F5007F86
:100E40003AD00FDC202928D006DC01291CD0042947
:100E50001DD0082940D11DE0402921D0B1F5807F67
:100E60003AD126E0B1F5004F31D006DCB1F5806F04
:100E700025D0B1F5006F2FD124E0B1F5803F12D01D
:100E8000B1F5003F28D111E0154A826025E0082223
:100E9000C26022E01022C2601FE0082202611CE052
:100EA0001022026119E00822426016E0102242601E
:100EB00013E00422426010E0042242600DE00422AC
:100EC00042600AE0002282610422426005E00022C2
:100ED00082610422426000E000BF00BF7047000052
:100EE0000101010010B504460B48844209D10121DB
:100EF000480601F0EBF900214FF0007001F0E6F92F
:100F000008E00121880601F0E1F900214FF080603E
:100F100001F0DCF910BD00000064004010B50021B4
:100F2000837A012202FA03F13D4A126842F001027B
:100F30003B4B1A603A4A1C3212688A43384B1C33C6
:100F40001A60027BCAB9364A0C3212688A43344BA3
:100F50000C331A604288C38842EA0343304A403265
:100F6000847A42F834300288838842EA03432C4A68
:100F70004032847A02EBC4025360027B012A19D109
:100F8000274A0C3212680A43254B0C331A604288F8
:100F9000038842EA0343224A4032847A42F83430DA
:100FA000C288838842EA03431D4A4032847A02EBB6
:100FB000C4025360C27A3AB9194A121D12688A43B0
:100FC000174B1B1D1A6006E0154A121D12680A43D2
:100FD000134B1B1D1A60028932B9114A1432126870
:100FE0008A430F4B14331A600289012A06D10C4A36
:100FF000143212680A430A4B14331A60427B012AE6
:1010000006D1074A1C3212680A43054B1C331A608A
:10101000034A126822F00102014B1A6010BD000061
:101020000066004070B504460D4600266069284001
:10103000002871D0B5F5807F5CD010DC082D35D04C
:1010400006DC012D20D0022D24D0042D72D127E002
:10105000102D31D0202D35D0402D6BD138E0B5F595
:10106000004F60D009DCB5F5007F49D0B5F5806F41
:101070004CD0B5F5006F5DD14FE0B5F5803F2DD078
:10108000B5F5003F56D12FE0A0682D4900F0A2FC35
:10109000064651E0E068032100F09CFC06464BE068
:1010A000E068082100F096FC064645E0E068102163
:1010B00000F090FC06463FE02069032100F08AFC26
:1010C000064639E02069082100F084FC064633E03A
:1010D0002069102100F07EFC06462DE060680821A2
:1010E00000F078FC064627E06068102100F072FCF2
:1010F000064621E0A069012100F06CFC06461BE0D9
:10110000A069022100F066FC064615E0A0690421F2
:1011100000F060FC06460FE00FE0A069702100F0CF
:1011200059FC064608E06068042100F053FC0646BE
:1011300002E0FFE7002600BF00E00026304670BD59
:10114000010101001AB143690B43436102E04369A5
:101150008B434361704730B502460020002314687A
:1011600024F002041460146844F00104146000E0E8
:101170005B1C546804F001041CB94FF6FF74A342D1
:10118000F6D1546804F001040CB900206CE08C79AD
:10119000012C04D1146844F08004146003E0146846
:1011A00024F080041460CC79012C04D1146844F03C
:1011B0004004146003E0146824F0400414600C7AC6
:1011C000012C04D1146844F02004146003E0146876
:1011D00024F0200414604C7A012C04D1146844F0EB
:1011E0001004146003E0146824F0100414608C7A76
:1011F000012C04D1146844F00804146003E014685E
:1012000024F008041460CC7A012C04D1146844F052
:101210000404146003E0146824F0040414608C785F
:10122000A407CD7844EA05640D7944EA05444D7974
:1012300044EA05540D886D1E2C43D461146824F0D3
:1012400001041460002300E05B1C546804F00104F6
:101250001CB14FF6FF74A342F6D1546804F00104A8
:101260000CB1002000E0012030BD10B500F5D873AE
:1012700003EB01131B6803F004031372137A53B9D1
:1012800000F5D87303EB01131B6840F2FF7404EA06
:101290005353136009E000F5D87303EB01131B6887
:1012A0006FF0604404EAD303536000F5D87303EB96
:1012B00001131B6803F00203537200F5D87303EBAC
:1012C00001135B6803F00F03937200F5D87303EB0F
:1012D00001135B681B0AD37400F5D87303EB011389
:1012E0009B68D37200F5D87303EB01139B681C0A4B
:1012F000147300F5D87303EB01139B681C0C547333
:1013000000F5D87303EB01139B681B0E937300F574
:10131000D87303EB0113DB68D37300F5D87303EBC9
:101320000113DB681C0A147400F5D87303EB011376
:10133000DB681C0C547400F5D87303EB0113DB68F5
:101340001B0E937421B9C36843F02003C36003E00C
:10135000036943F02003036110BD00218171C17155
:10136000017241728172C1728170C1700321017179
:101370000221417101210180704700000EB500205B
:101380000E4908600E480B460ECB0EC0012102200C
:1013900000F08CFF4FF6FF7001905320ADF8000075
:1013A0000020ADF80200ADF808006946054801F0DC
:1013B000A9FB0121034801F079FB0EBDC00100200B
:1013C0009C5800200004004058E04FF4C8712C489D
:1013D000FEF79CFF2A4803F0D1FA4FF4C871294860
:1013E000FEF794FF002408E0274951F8240003F099
:1013F00069F8264941F82400641C072CF4D3002026
:1014000003F060F8224908601E4803F04DFA0020FE
:1014100000F0F0FF1FA1002001F0A2F8002000F072
:10142000E9FF28A1002001F09BF8002000F0E2FF76
:10143000134A32A1002001F093F8002000F0DAFFF7
:1014400014A1002001F08CF8002000F0D3FF2CA1A3
:10145000002001F085F8002000F0CCFF094A27A108
:10146000002001F07DF8002000F0C4FF2EA1002034
:1014700001F076F84FF47A7003F020F9A5E7000048
:101480004C0B0020DC0C0020300B00206C0E0020E8
:101490004C0100202D2D2D2D2D2D2D2D2D2D2D2DC3
:1014A0002D2D2D2D2D2D2D2D2D2D2D2D2D2D2D2D6C
:1014B0002D2D2D2D2D2D2D2D2D2D2D2D2D2D2D2D5C
:1014C0002D0D0A004E616D6520202020537461743B
:1014D00065205072696F7269747920202020205233
:1014E000656D61696E537461636B20202020205309
:1014F000657175656E63650D0A0000002573000057
:101500004E616D6520202020202020202052756E05
:10151000436F756E7473202020205573696E675277
:101520006174650D0A0000002D2D2D2D2D2D2D2D02
:101530002D2D2D2D2D2D2D2D2D2D2D2D2D2D2D2DDB
:101540002D2D2D2D2D2D2D2D2D2D2D2D2D2D2D2DCB
:101550002D2D2D2D2D0D0A0A000000000FB410B501
:101560000298A0F2012030B1012822D002283FD0F9
:1015700003287BD15BE09DF816109DF8150041EA29
:10158000002001B23B48A0F8CA139DF818109DF83E
:10159000170041EA002001B23648A0F8CC13002021
:1015A00035490880354800F0E7FC334880ED060AED
:1015B0005CE09DF816109DF8150041EA002001B28C
:1015C0002C48A0F8D2139DF818109DF8170041EA96
:1015D000002001B22748A0F8D413002026494880F3
:1015E0002648801C00F0C8FC234880ED070A3DE037
:1015F0009DF816109DF8150041EA002001B21D4823
:10160000A0F8DA139DF818109DF8170041EA0020A1
:1016100001B21848A0F8DC13002017498880174849
:10162000001D00F0A9FC144880ED080A1EE09DF89A
:1016300016109DF8150041EA002001B20D48A0F8EF
:10164000E2139DF818109DF8170041EA002001B23E
:101650000848A0F8E41300200749C8800748801D07
:1016600000F08AFC044880ED090A00BF00BF10BCEE
:101670005DF814FB50040020F00100203009002028
:101680000FB410B50298A0F2052030B1012830D077
:1016900002285BD003282BD185E09DF814009DF82B
:1016A000131040EA012000B25749A1F8A8039DF8A1
:1016B00016109DF8150041EA002001B25248A0F82A
:1016C000AA139DF818109DF8170041EA002001B2F6
:1016D0004D48A0F8AC139DF8191080F8AE13002007
:1016E0004A4908814A4800F047FC484880ED0A0A08
:1016F00086E09DF814009DF8131040EA012001B225
:101700004148A0F8B0139DF816109DF8150041EA65
:10171000002001B23C48A0F8B2139DF818109DF8C3
:10172000170041EA002001B23748A0F8B4139DF831
:10173000191080F8B6130021344841813448801CC8
:1017400000F01AFC314880ED0B0A59E09DF81400B6
:101750009DF8131040EA012001B22B48A0F8B813FD
:101760009DF816109DF8150041EA002001B22648A8
:10177000A0F8BA139DF818109DF8170041EA002050
:1017800001B22148A0F8BC139DF8191080F8BE13CF
:1017900000211E4881811E48001D00F0EDFB1B4802
:1017A00080ED0C0A2CE09DF814009DF8131040EA1F
:1017B000012001B21448A0F8C0139DF816109DF83E
:1017C000150041EA002001B20F48A0F8C2139DF8AD
:1017D00018109DF8170041EA002001B20A48A0F84D
:1017E000C4139DF8191080F8C61300210748C18161
:1017F0000748801D00F0C0FB044880ED0D0A00BFC3
:1018000000BF10BC5DF814FB50040020F001002064
:101810003809002070B504462068A0F2011010B10C
:1018200001287FD153E04048B4F80B1001800146F5
:10183000B4F80D004880B4F80F0088803B49B4F834
:101840001100C8803848B0F90000002803DD364890
:10185000B0F9000003E03448B0F9000040426428C9
:1018600022DA3148B0F90200002803DD2E48B0F931
:10187000020003E02C48B0F902004042642813DA69
:101880002948B0F90400002803DD2748B0F9040016
:1018900003E02548B0F904004042B0F5FA6F03DADE
:1018A00000202349087002E00120214908701F48E8
:1018B000B0F90600642190FBF1F52846FEF7C9FE59
:1018C0001C4AC2E90C0100201B4948822AE0174843
:1018D000E17A01700146207B4870B4F80D008880E1
:1018E000E07B0872207C08730846007B00F0010052
:1018F00088700846007BC0F34000C8700846007B33
:10190000C0F3800048720846007BC0F3C0008872B4
:101910000846007BC0F3001048730846007B40096E
:10192000C87200BF00BF70BD1E0900201009002052
:101930002801002050040020F00100201CB50121E6
:10194000072000F0A3FCC020009001208DF80400C7
:1019500000208DF8050069460F4800F09DFA4021EF
:101960000D4800F004FB80210B4800F002FB302002
:10197000009001208DF8040000208DF805006946D4
:10198000064800F089FA2021044800F0F2FA1021FC
:10199000024800F0ECFA1CBD0000024000080240C2
:1019A00008B500BF642002F089FE0FE003F052F991
:1019B000009001F05BFA00F017FB0121684602F08D
:1019C00097FE002002F07EFD01490860EEE700006E
:1019D0005C0000200246002002EA01030BB1012056
:1019E00000E000207047000000B587B001210846E4
:1019F00000F04CFC0121022000F048FC01214807C6
:101A000000F054FC3020059003208DF818000220CF
:101A10008DF8190005A9134800F03EFA302111484D
:101A200000F0A7FA00200190029003900220049099
:101A300001A9002000F02CF801A9102000F028F8DE
:101A40000121002000F010F80121102000F00CF816
:101A50000021084600F036F80021084600F042F860
:101A600007B000BD0000024039B1084A12680123E6
:101A700083401A43054B1A6006E0044A12680123AA
:101A800083409A43014B1A60704700000074004085
:101A900030B5002200230A4C226840F6FE748440D0
:101AA000A243D1E900452C438D682C43CD6844EA1C
:101AB000050303FA00F42243014C226030BD00000C
:101AC0000074004008B500220092054A009200F11F
:101AD0000802009B1A440092009A116008BD0000A1
:101AE0000074004008B500220092054A009200F1FF
:101AF0001402009B1A440092009A116008BD000075
:101B00000074004010B50649064800F037F930B1BE
:101B10000120054908700249024800F053F810BD41
:101B20000080201040600240BD01002010B50A492D
:101B30000A4800F023F970B10949084800F028F874
:101B40000549064800F03EF80021044800F054F82A
:101B500000200449087010BD208000207060024001
:101B6000200000207A00002010B50749074800F047
:101B700005F938B10449054800F024F8002103486C
:101B800000F03AF810BD000000802020A060024064
:101B90000246094B9A4201D2084801E00648103833
:101BA00001F000531BB1064B0B40C36002E0044B35
:101BB0000B408360704700001064024000600240E8
:101BC0007D0F7D0F0246094B9A4201D2084801E081
:101BD0000648103801F000531BB1064B0B40C360A0
:101BE00002E0044B0B408360704700001064024029
:101BF000006002407D0F7D0F21B1026842F00102BA
:101C0000026003E0026822F00102026070470000F7
:101C1000016821F0010101600021016041608160E3
:101C2000C1600161212141614A49884204D13D21BD
:101C3000484A103A91608CE046491831884205D1F3
:101C40004FF47461434A103A916082E04149303167
:101C5000884205D14FF474113E4A103A916078E001
:101C60003C494831884205D14FF07461394A103AF5
:101C700091606EE037496031884204D13649354A77
:101C8000103AD16065E033497831884204D1334954
:101C9000304A103AD1605CE02E499031884204D13C
:101CA0002F492C4A103AD16053E02A49A831884282
:101CB00005D14FF03D51274A103AD16049E02949FA
:101CC000884204D13D21274A083A116041E0254964
:101CD0001831884205D14FF47461224A083A1160E4
:101CE00037E020493031884205D14FF474111D4A44
:101CF000083A11602DE01B494831884205D14FF068
:101D00007461184A083A116023E01649603188422C
:101D100004D11149134A121F11601AE01149783198
:101D2000884204D10D490F4A121F116011E00D497C
:101D30009031884204D10A490A4A121F116008E012
:101D40000849A831884204D14FF03D51054A121F7D
:101D500011607047106002403D000020400F0020DD
:101D600000003D2010640240014600200A6802F095
:101D700001020AB1012000E00020704770B5024660
:101D8000002000240025124EB24201D2114B01E086
:101D90000F4B103B104E0E4036B11E2606EAD124E2
:101DA000166806EA040502E0566906F0800501F0AF
:101DB00000560EB15C6800E01C68084E344004EA2E
:101DC000010616B10DB1012000E0002070BD000039
:101DD00010640240006002403C0F3C0F7D0F7D0FFD
:101DE00010B501F080034BB122B1436943F0800389
:101DF000436103E0436923F08003436180290BD0F2
:101E00002AB1036801F01E042343036004E0036861
:101E100001F01E04A343036010BD000010B50022B2
:101E20000268134B1A40CC680B6823434C69234368
:101E30008C692343CC6923430C6A23434C6A2343B4
:101E40008C6A23434C6B23438C6B23431A430260FD
:101E5000426922F00702D1E90B3423431A4342615D
:101E60000B6943604B6883608B68C36010BD0000E2
:101E70003F801CF00021016041608160C160016110
:101E800041618161C161016241628162C16201633C
:101E90004163816370477047F0B50A460021002313
:101EA000002400BF3DE0012505FA01F3156805EAAD
:101EB00003049C4234D105684F000326BE40B5435D
:101EC000056015794E00B540066835430560157903
:101ED000012D02D01579022D16D185684F000326F9
:101EE000BE40B543856055794E00B54086683543A0
:101EF0008560456801268E40B54345604568967902
:101F00008E40B6B235434560C5684F000326BE40DB
:101F1000B543C560D5794E00B540C6683543C56048
:101F2000491C1029BFD3F0BDF0B5002300244D0794
:101F3000ED0E02FA05F3CE1000F1200555F82650FB
:101F40004E07F70E0F26BE40B543CF1000F1200616
:101F500046F82750CE1000F1200555F8265045EAE6
:101F60000304CE1000F1200545F82640F0BD418362
:101F7000704701837047000008B50B49096889B2B2
:101F800000910188BDF80020511A89B200EE901A24
:101F9000F8EE600A9FED051AC0EE811AB0EE610AF4
:101FA000BDF80010018008BD2404004000247449DD
:101FB00000BFFEE770B505460C4645F2555000F0EF
:101FC0002BF8284600F01CF8204600F01FF800F01F
:101FD0000FF800F001F870BD4CF6CC4001490860E4
:101FE000704700000030004010B500F001F810BD4F
:101FF0004AF6AA20014908607047000000300040FE
:102000000149486070470000003000400149886085
:102010007047000000300040014908607047000030
:102020000030004000BFFEE77047000070B500219F
:1020300000230F22C4781CB3174C246804F4E06416
:10204000C4F5E064C4F30721C1F10404E3B20A411A
:1020500044789C40E1B28478144021430C07210E5F
:102060000E4C05786155047804F01F050124AC403E
:1020700005786D11AD0005F1E025C5F8004109E0D6
:10208000047804F01F050124AC40054D0678761154
:1020900045F8264070BD00000CED00E000E400E0D3
:1020A00080E100E000B597B00121084600F0EEF8AD
:1020B0001020159003208DF858008DF8590015A9AF
:1020C0003B48FFF7E9FE0121880500F0DFF83948B9
:1020D000FFF79EFD06A8FFF7CDFE3748079037486B
:1020E0000890002009905A200A9000200B904FF48D
:1020F00080600C9040000D9080000E9040110F9079
:102100004002109006A92B48FFF788FE01212948BC
:10211000FFF772FD0121080200F0E8F86946264841
:102120004C38FEF7EDFB0020009001208DF80400F4
:102130008DF8050000200390049003208DF8140012
:1021400069461D484C38FEF7DBFB0120FEF764FCB6
:1021500007230122042118484C38FEF7FBFB072314
:102160000222092114484C38FEF7F4FB072303220E
:10217000102111484C38FEF7EDFB01210E484C3878
:10218000FEF7A8FB01210C484C38FEF7AEFB0121FD
:1021900009484C38FEF79EFB012107484C38FEF7F2
:1021A0008EFB05484C38FEF731FC17B000BD00002F
:1021B00000000240106402404C200140985600206C
:1021C0001CB50121052000F061F8C020009001201D
:1021D0008DF8040000208DF8050069460B48FFF7D4
:1021E0005BFE40210948FFF7C2FE80210748FFF748
:1021F000C0FE3020009001208DF8040000208DF8F2
:10220000050069460248FFF747FE1CBD000002407A
:102210000008024000B587B00121084600F036F8FA
:102220001020059003208DF8180002208DF8190069
:1022300005A91548FFF730FE10211348FFF799FE56
:102240000121480700F032F800200190029003902D
:102250000220049001A90020FFF71AFC01A9102018
:10226000FFF716FC01210020FFF7FEFB01211020E3
:10227000FFF7FAFB00210846FFF724FC002108467F
:10228000FFF730FC07B000BD0000024029B1064A4C
:1022900012680243044B1A6004E0034A1268824346
:1022A000014B1A60704700003038024029B1064ADD
:1022B00012680243044B1A6004E0034A1268824326
:1022C000014B1A60704700004038024029B1064AAD
:1022D00012680243044B1A6004E0034A1268824306
:1022E000014B1A60704700002038024029B1064AAD
:1022F00012680243044B1A6004E0034A12688243E6
:10230000014B1A607047000044380240F0B50021CC
:1023100000220024022500260223324F3F6807F0E6
:102320000C0121B1042905D0082937D105E02E4F31
:10233000076036E02D4F076033E02A4F3F1F3F68AC
:10234000C7F38056274F3F1F3F6807F03F036EB12A
:10235000264FB7FBF3F7DFF88CC0ACF1040CDCF8C8
:1023600000C0CCF3881C07FB0CF40CE01E4FB7FB3D
:10237000F3F7DFF870C0ACF1040CDCF800C0CCF36C
:10238000881C07FB0CF4174F3F1F3F68C7F301473A
:102390007F1C7D00B4FBF5F7076002E0124F076079
:1023A00000BF00BF0F4F3F6807F0F0010909104F51
:1023B0007A5C0768D74047600A4F3F6807F4E051EE
:1023C000890A0B4F7A5C4768D7408760054F3F68A2
:1023D00007F46041490B064F7A5C4768D740C760F5
:1023E000F0BD0000083802400024F40000127A001A
:1023F000140000202DE9F8430446DFF88C8000BF6C
:1024000098F8000008B900F063FE00BF0027FF2025
:102410008DF80000102C31D21C48005D8DF80100B1
:10242000194D1835EFF311808046202080F3118874
:1024300000BF00BF287D00F00300022807D1144828
:10244000047002226946284600F096FF0FE02846F5
:1024500000F076FE0646022E07D30D4804700222D5
:102460006946284600F0C3FF01E04FF0FF3708F04F
:10247000FF0080F3118800BF00BF01E04FF0FF377D
:102480003846BDE8F8830000A8580020DC01002091
:10249000EC0100202DE9F04104460D4616460E4F92
:1024A00000BF387808B900F013FE00BFEFF31180C9
:1024B0000746202080F3118800BF00BF324629461E
:1024C000204600F00BF88046F8B280F3118800BF78
:1024D00000BF4046BDE8F081A85800202DE9F04734
:1024E000074688461646C24607EB47011B4800EBE5
:1024F000C109D9F8140020B1012811D0022826D131
:102500001EE0484600F01CFE0546B54201D20024FC
:1025100005E0344632465146484600F068FF18E070
:10252000484600F00DFE0546B54201D2284600E0BF
:102530003046044622465146484600F058FF08E01F
:1025400032465146484600F017FF044601E0002499
:1025500000BF00BF2046BDE8F0870000C058002043
:102560000FB438B5044606A800906A46204605997F
:1025700000F007F8054600200090284638BC5DF8BA
:1025800014FB2DE9F04F99B082460D46144603A87E
:1025900014904020159000201690CDF860A0179060
:1025A00000BF2E786D1C06B9DDE0252E79D10027FD
:1025B0004FF0010900BF2E78232E12D02B2E0CD005
:1025C0002D2E02D0302E10D103E047F001076D1CF4
:1025D0000EE047F002076D1C0AE047F004076D1C8F
:1025E00006E047F008076D1C02E04FF0000900BF4D
:1025F00000BFB9F1000FDED14FF0000800BF2E7808
:10260000302E01DB392E00DD07E06D1CA6F1300015
:1026100008EB880100EB4108F1E700BF00201390B0
:102620002E782E2E12D16D1C00BF2E78302E01DB9D
:10263000392E00DD09E06D1CA6F13000139901EB85
:10264000810100EB41001390EFE700BF2E7800BF3F
:102650006C2E01D0682E02D16D1C2E7800E000E0B7
:10266000F6E700BF702E5DD008DC252E6AD0582E0C
:1026700035D0632E09D0642E69D113E0732E3CD07F
:10268000752E1DD0782E62D128E02168081D2060AB
:10269000D1F8009009F0FF0B594614A800F04AFE4B
:1026A00056E058E02168081D2060D1F80090CDE97F
:1026B00000870A22494614A8139B00F04FFD47E00B
:1026C0002168081D2060D1F80090CDE900870A221A
:1026D000494614A8139B00F0B7FD39E000BF2168FC
:1026E000081D2060D1F80090CDE9008710224946EE
:1026F00014A8139B00F0A8FD2AE02168081D2060A3
:10270000D1F800B000BF9BF800600BF1010B06B9D7
:1027100006E0314614A800F00DFE17980028F2DA02
:1027200000BF15E02168081D2060D1F8009000204E
:1027300008210B461022CDE90010494614A800F0EC
:1027400083FD05E0252114A800F0F4FD00E000BFA2
:1027500000BF6D1C03E0314614A800F0EBFD179894
:102760000028BFF61EAF00BF179800280ADD169894
:1027700020B103A95046169AFFF78CFEDDE916102A
:1027800008441790179819B0BDE8F08F0CB50020D9
:10279000019000903448006840F48030324908606D
:1027A00000BF3148006800F4003000900198401CE0
:1027B0000190009818B90198B0F5A04FF1D12A48BE
:1027C000006800F4003010B10120009001E000200A
:1027D00000900098012846D123484030006840F01E
:1027E00080502149403108602048006840F4404052
:1027F0001E4908601C48083000681B490831086001
:102800000846006840F4004008600846006840F44C
:10281000A05008601648091F0860081F006840F0B3
:102820008070091F086000BF0F48006800F000704A
:102830000028F9D040F205700E4908600A480830B7
:10284000006820F003000849083108600846006865
:1028500040F00200086000BF03480830006800F044
:102860000C000828F8D10CBD003802400070004070
:1028700008544007003C024010B5FFF713FCFFF777
:10288000C9FCFFF79DFC20210348FFF772FB1021D4
:102890000148FFF76CFB10BD0008024010B502F0C4
:1028A0008FF910BD10B51548006840F47000134949
:1028B00008601348006840F00100114908600020DA
:1028C0000F49083108600E4800680E4908400C495D
:1028D00008600D48091D0860081F006820F480206A
:1028E000091F0860002006490C310860FFF74EFF01
:1028F0004FF0006001498039086010BD88ED00E0AC
:1029000000380240FFFFF6FE103000241FB5012101
:102910000846FFF7CBFC0020ADF80C00ADF8040032
:10292000ADF806008DF80E004FF6FF7002901C20E7
:102930008DF8000001208DF8030002208DF80100C1
:1029400000208DF802006846FFF770FB01A94FF0E8
:10295000804000F0D7F80121880700F0A1F800229C
:102960000121880700F0C2F800214FF0804000F0FC
:102970009DF81FBD10B50121880700F0A6F840B1F1
:102980000121880700F08FF802480068401C0149C7
:10299000086010BDB00100201FB501210420FFF721
:1029A00085FC40F2E73002904720ADF8040000209B
:1029B000ADF80600ADF80C0001A90E4800F0A2F831
:1029C000012211460B4800F091F80121094800F05E
:1029D0006DF81E208DF8000001208DF80100002008
:1029E0008DF8020001208DF803006846FFF71EFBFA
:1029F0001FBD00000008004010B52DED028B012125
:102A0000164800F062F830B315480078F8B9154858
:102A1000FFF7B2FA1448D0ED000A30EE200A80ED3C
:102A2000000AFFF7E1FA10480068FDF723FE41ECC9
:102A3000180B9FED0E0B53EC102BFDF72FFE06D25B
:102A40000120074908700B49486901F08BFE0121FC
:102A5000024800F028F8BDEC028B10BD00080040D1
:102A6000BC010020B4010020B801002000000000DB
:102A700000001440300B002010B50121064800F082
:102A800024F840B105480068401C04490860012151
:102A9000014800F008F810BD00140040D8010020E3
:102AA000CA4302827047CA430282704721B102883A
:102AB00042F00102028004E002884FF6FE731A40E1
:102AC000028070470146486A704730B502460020D0
:102AD00000230024158A05EA0103958905EA01040B
:102AE00013B10CB1012000E0002030BD1AB1838980
:102AF0000B43838102E083898B438381704741626A
:102B00007047000000220288184B98420ED0184BE4
:102B100098420BD0B0F1804F08D0164B984205D0A8
:102B2000154B984202D0154B984204D14FF68F7343
:102B30001A404B881A43124B984207D0114B9842C7
:102B400004D04FF6FF431A400B891A4302804B68AA
:102B5000C3620B880385054B984202D0044B984210
:102B600001D18B7A038601238382704700000140E4
:102B7000000401400004004000080040000C004038
:102B8000001000400014004000B597B0012104205F
:102B9000FFF77CFB0121C804FFF788FB08220A210C
:102BA0006C48FFF7C1F908220B216A48FFF7BCF90E
:102BB0004FF48060119002208DF8480000208DF8BD
:102BC0004A0003208DF8490000208DF84B0011A920
:102BD0006048FFF761F94FF40060119002208DF812
:102BE000480000208DF84A0003208DF8490000209D
:102BF0008DF84B0011A95748FFF74EF94FF4E1301B
:102C000013900020ADF85000ADF85200ADF854001C
:102C10000C20ADF856000020ADF8580013A94E481E
:102C200000F0B8F801214C4800F09EF80122402144
:102C3000494800F0A5F80D208DF8400002208DF8DD
:102C4000410001208DF842008DF8430010A8FFF7E5
:102C5000EDF901214805FFF719FB4048FEF7D8FFC1
:102C60004FF0006001903C48001D02903C480390EA
:102C7000002004902D200590002006904FF48060E5
:102C800007900020089009904FF480700A904FF44C
:102C900040300B9000200C900D900E900F9001A9E9
:102CA0002E48FFF7BBF8012210212C48FFF798F8B7
:102CB00001212A48FEF7A0FF01228021264800F0CA
:102CC0005FF80F208DF8400003208DF841000120AF
:102CD0008DF842008DF8430010A8FFF7A7F91F48B0
:102CE0003030FEF795FF00BF1C483030FFF73CF84E
:102CF0000028F9D14FF0006001901748001D0290A4
:102D000018480390402004908020059000200690F1
:102D10004FF4806007900020089009900A904FF4CB
:102D200000300B9000200C900D900E900F9001A998
:102D30000A483030FFF772F801221021074830307E
:102D4000FFF74EF8002105483030FEF755FF17B069
:102D500000BD000000080240004C004040600240FE
:102D6000EC5700206409002021B1828942F400520E
:102D7000828104E082894DF6FF731A408281704798
:102D80001AB1838A0B43838202E0838A8B43838256
:102D9000704700002DE9FF4705460E460024A14676
:102DA00000BFA046B08900B100BF2C8A24F4405473
:102DB000F08804432C82AC8941F20C608443B088D3
:102DC00031890843718908430443AC81AC8A24F4F7
:102DD0004074B0890443AC826846FFF797FA2048F4
:102DE000854202D01F48854202D1DDF80C9001E0F7
:102DF000DDF80890A88900F4004040B109EBC90053
:102E000000EB091031684900B0FBF1F707E009EB6E
:102E1000C90000EB091031688900B0FBF1F76420AC
:102E2000B7FBF0F004012009642101FB1078A889A8
:102E300000F4004040B1322000EBC800B0FBF1F0DC
:102E400000F00700044308E0322000EB0810642182
:102E5000B0FBF1F000F00F0004432C81BDE8FF87C8
:102E6000001001400014014000BFFEE710B53648D5
:102E700090ED100A354880ED000A3548B0F9CA03D4
:102E800000EE100AB8EEC00A304880ED010A314861
:102E9000007800EE100AB8EE400A2C4880ED020AD5
:102EA0002C4890ED010A294880ED030A264890ED50
:102EB000090AF2EE0C0A30EE600A244880ED040A9A
:102EC000214890ED0A0AD0ED090A30EE600AF2EED0
:102ED0000C0A30EE600A1D4880ED050A1C48B0F966
:102EE000CC0300EE100AB8EEC00A184880ED060ABE
:102EF0001748B0F9D40300EE100AB8EEC00A134820
:102F000080ED070A1248B0F9DC0300EE100AB8EEB3
:102F1000C00A0E4880ED080A0D48B0F9E40300EE3F
:102F2000100AB8EEC00A094880ED090A28220146B5
:102F30000948FDF7D2F92C2008490860012107480B
:102F4000001FFEF759FE10BD380200204C5700202C
:102F500050040020980A002074570020A46002400A
:102F600000B587B00020544981F8280081F8290075
:102F7000802081F82A007F2081F82B0011208DF815
:102F8000000000208DF801008DF8020001208DF86E
:102F900003006846FFF74AF801214805FFF776F974
:102FA0004648FEF735FE4FF0006045490860454849
:102FB0004860414888604020C8602C20086100209B
:102FC00048614FF4806088610020C86108624862EF
:102FD0004FF4403088620020C86208634863886309
:102FE0003648FEF71BFF38493448FEF7D1FD012271
:102FF00010213248FEF7F4FE00213048FEF7FCFDB8
:1030000001210846FFF742F901214804FFF74EF974
:10301000072202212D48FEF787FF072203212B48B4
:10302000FEF782FF0420019002208DF808000020A6
:103030008DF80A0003208DF8090000208DF80B00A0
:1030400001A92248FEF728FF0820019002208DF8F0
:10305000080000208DF80A0003208DF809000020E8
:103060008DF80B0001A91948FEF716FF4FF4E13067
:1030700003900020ADF81000ADF81200ADF8140078
:103080000C20ADF816000020ADF8180003A90D487B
:10309000001FFFF77FFE01210A48001FFFF764FEB3
:1030A000012280210748001FFFF76AFE0121034823
:1030B000FEF7A2FD07B000BD74570020A0600240DB
:1030C000A0570020044400400000202000000240DF
:1030D00070B5144CA8212046FDF718F90320206193
:1030E000606111A0A0611349E1614FF48061216228
:1030F0000021A1626162E1620BA020660E49616657
:103100001021A16600212167E1666167002505E0C5
:10311000C5F10F000949085C60556D1C102DF7D3EF
:1031200070BD0000A85800205465726D696E616C16
:103130000000000050590020505D0020644E00083F
:1031400010B501460A69CB689A4204D88C68641E9F
:10315000E41AA01801E0D41A601E10BD2DE9FC5F2E
:1031600006460F4692469846DDE90C45002F01DAE7
:10317000784200E0384683464FF0010903E09BFBAC
:10318000FAFB09F10109D345F9DAC84500D9C1466E
:1031900034B1002F03DB05F00400042800D1641EC5
:1031A00005F0020010B1B8F1000F11D005F00100D8
:1031B00070B96CB108E0641E2021304600F0BAF806
:1031C000F068002800DA02E00CB1A145F3D300BF9B
:1031D000F068002836DB002F05DA7F422D213046CB
:1031E00000F0A8F807E005F00400042803D12B2123
:1031F000304600F09FF8F068002823DB05F002005D
:10320000022814D105F0010088B9B8F1000F0ED1E1
:103210006CB108E0641E3021304600F08BF8F06895
:10322000002800DA02E00CB1A145F3D300BFF0683A
:10323000002807DB4346524639463046CDE9004573
:1032400000F002F8BDE8FC9F2DE9FC5F804689464E
:1032500015461E460C9CCDF804900127BB4605E0A0
:103260000198B0FBF5F001900BF1010B0198A84219
:10327000F6D25E4500D9B3460D9800F00100D0B9F2
:10328000CCB10D9800F00200022803D116B930200D
:10329000009001E02020009009E0641E4046009963
:1032A00000F048F8D8F80C00002800DA02E00CB171
:1032B000A345F2D300BFD8F80C00002835DB09E0A5
:1032C000012E01D9761E04E0B9FBF7FAAA4500D217
:1032D00001E06F43F4E700BF00BFB9FBF7FA0AFB58
:1032E0001799134810F80A10404600F023F8D8F850
:1032F0000C00002800DA03E0B7FBF5F7002FECD153
:1033000000BF0D9800F0010078B174B109E0641EAF
:103310002021404600F00EF8D8F80C00002800DA12
:1033200002E00CB1A345F2D300BFBDE8FC9F000052
:10333000754E000870B504460E46A568681C6168A5
:10334000814206D320684655681CA060E068401C96
:10335000E060D4E9011088420DD1A268216820699B
:10336000FFF798F8A168884203D04FF0FF30E06083
:1033700001E00020A06070BD2DE9F05F04468946A1
:1033800017464FF0000AE56800BFD4F81080A84542
:1033900003D9A8EB0500461E04E0A5EB0800401C7D
:1033A000A1680E1AA068401BB04201D9304601E066
:1033B000A068401B0646BE4201D2304600E03846B7
:1033C0000646606800EB050B324649465846FCF756
:1033D00084FFB244B144BF1B3544A068A84200D169
:1033E0000025E560002FD0D15046BDE8F09F2DE9C3
:1033F000F047044689461546E668A068871BAF4239
:103400000AD9606800EB060A2A4649465046FCF78E
:1034100064FF7019E06014E0B846606800EB060ACB
:10342000424649465046FCF758FFA5EB0708D4F83A
:1034300004A009EB070142465046FCF74EFFC4F8D2
:103440000C80BDE8F08700000FB4084B10B504A94C
:1034500002AA039800F0DEF8044602A9002000F05A
:1034600070FC204610BC5DF814FB0000433D0008D2
:1034700002E008C8121F08C1002AFAD1704770473D
:10348000002001E001C1121F002AFBD1704700009B
:103490002DE9FF5F82B00021DDE90430020DDDF887
:1034A00040B0034318D044F61050A2F2FF3242431A
:1034B0001514119801281FD0A5EB0B00401C5FEAE2
:1034C000000A4FF000064E4FDFF83891B0465046E4
:1034D00015D5CAF1000413E0119801244AA301286C
:1034E00001D16FEA0B010298119AC0E90031C0E9DD
:1034F000024206B0BDE8F09FCBF10000DFE70446D2
:103500000021404A491842EB0450CDE9001012E076
:10351000E00707D032463B4640464946FCF7B8FF35
:103520008046894632463B4610461946FCF7B0FFB6
:1035300006460F466410002CEAD1DDE90401DDE9FE
:103540000023BAF1000F06DAFCF7A2FF42464B4611
:10355000FCF79EFF05E0FDF70DF842464B46FDF7F0
:1035600009F804460E460022284BFDF797F803D8C9
:103570004FF0FF30014607E00022254B2046314640
:10358000FCF7DFFEFDF746F9102409E0002C0ADB0A
:103590000A220023FCF770FE039B30321A55641E8A
:1035A00050EA0102F2D1641C039AC4F111031444DD
:1035B000119A012A03D0012208430DD10AE00843E1
:1035C00004D000204FF0110B119072E7A3EB0B0514
:1035D0006D1E0DE05B4504DD4FF0000205F10105B5
:1035E00004E003DA4FF00002A5F10105002AECD057
:1035F00002981199C0E90231C0E9004579E700005D
:10360000000014400000F03F300000000000F043D4
:103610000000E03F2DE9FF4F95B09B4689460646E6
:1036200000250FE2252877D100242746F84A0121FA
:10363000059400E0044316F8013F203B01FA03F033
:103640001042F7D130782A2811D06FF02F0330784C
:10365000A0F13002092A16D8059A44F0020402EBC0
:10366000820203EB42021044761C0590EFE759F802
:10367000042B0592002A03DA504244F400540590CA
:1036800044F00204761C30782E2816D116F8010F6B
:1036900044F004042A280DD06FF02F023078A0F1F6
:1036A0003003092B09D807EB870302EB4303C71844
:1036B000761CF3E759F8047B761C30786C280FD021
:1036C00006DC4C2817D068280DD06A2814D104E0F5
:1036D000742810D07A280FD10DE044F400140AE0C9
:1036E00044F4801401E044F440147278824202D120
:1036F00004F58014761C761C307866280BD013DC19
:10370000582877D009DC002875D04528F6D04628FF
:10371000F4D047281AD19DE118E0632835D06428F9
:1037200079D0652812D195E1702873D008DC67281C
:10373000F1D069286FD06E280DD06F2806D1B5E082
:1037400073282CD0752875D0782874D05A461799CC
:1037500090476D1C75E1C4F30250022809D003287C
:103760000DD0D9F8001004280DD00D6009F104091E
:1037700067E1D9F80010EA17C1E90052F6E7D9F875
:1037800000100D80F2E70D70F0E719F8041B8DF8BA
:10379000001000208DF80100EA46012003E059F8EE
:1037A00004AB4FF0FF3061074FF0000102D40DE091
:1037B00008F101018846B9420FDA8045F8DB1AF8B2
:1037C00008100029F4D108E008F10101884681427F
:1037D000FADB1AF808100029F6D105985B46A0EB31
:1037E000080721463846179A00F094FA284400EB5F
:1037F000080507E04DE029E10DE01AF8010B5A46F3
:1038000017999047B8F10108F7D25B462146384630
:10381000179A13E142E00A220092C4F302524FF0D9
:10382000000A022A08D059F804CB032A4FEAEC71A7
:103830000AD00DE029E02AE009F1070121F0070292
:10384000F2E802C1914609E00FFA8CFC4FEAEC71F4
:10385000042A03D14FFA8CFC4FEAEC71002907DAF5
:103860000A460021DCF1000C61EB02012D2202E08E
:10387000220504D52B228DF80420012203E0E20763
:1038800001D02022F7E7904659E00A2102E01022F9
:103890000DE010214FF0000A00910BE010224FF0D4
:1038A000000A44F004040827009203E008224FF0C5
:1038B000000A0092C4F30252022A05D059F804CB40
:1038C0000021032A08D009E009F1070121F00702CD
:1038D000F2E802C1914605E01FFA8CFC042A01D1EE
:1038E0000CF0FF0C4FF00008220728D5702806D0F6
:1038F000009B83F0100353EA0A0305D00EE0402238
:103900008DF80420012208E05CEA010206D0302292
:103910008DF804208DF8050002229046009B83F06C
:10392000080353EA0A030AD15CEA010201D16207E3
:1039300005D530228DF804204FF001087F1E58284D
:1039400004D034A003900EA802900DE036A0F9E751
:1039500053466046009AFCF78FFC84460398825CCD
:103960000298401E029002705CEA0100F0D10298B9
:1039700006A9081A00F1200A600702D524F4803451
:1039800000E00127574502DDA7EB0A0000E0002018
:1039900000EB0A01009005984144401A0590E003AD
:1039A00006D45B462146179A059800F0B3F9054402
:1039B000002706E001A85A46C05D179990476D1C84
:1039C0007F1C4745F6DBE0030CD55B462146179A82
:1039D000059800F09FF9054404E030205A461799F5
:1039E00090476D1C0099481E00900029F5DC08E006
:1039F000029802995A460078491C029117999047FB
:103A00006D1CBAF10001AAF1010AF1DC65E10000C8
:103A100009280100303132333435363738396162A4
:103A20006364656600000000303132333435363768
:103A300038394142434445460000000000F058F93F
:103A40000544761C307800287FF4ECAD19B0284688
:103A5000BDE8F08F620700D4062709F1070222F0C3
:103A6000070CFCE80223E14603F000485FEA080C7B
:103A700002D00FF2702C0DE05FEA045C02D50FF269
:103A8000682C07E05FEAC47C02D00FF2602C01E0F2
:103A9000AFF2700C4FF0FF3823F00043CDF850C068
:103AA00065280CD006DC452809D046281DD04728BB
:103AB0003DD13DE0662818D067287ED138E000214E
:103AC000112F01DB112000E0781CCDE9000106A9CF
:103AD0000EA8FFF7DDFCDDE90F010E9A039100212E
:103AE000009207F1010A04914DE04FF00040009769
:103AF000CDE9011006A90EA8FFF7CAFCDDE90F0207
:103B000003920E9B11990022DDF80CA00093049201
:103B100011B9791C00EB010AB7EB0A0004D4C0F11B
:103B2000FF3007F1010A0490AAEB0700019044E07E
:103B3000012F00DA01270021112F01DD112000E003
:103B40003846CDE9000106A90EA8FFF7A1FCDDE982
:103B50000F010E9A0391002104910092BA462107A9
:103B60000CD40399514500DA8A46BAF1010F05DDFC
:103B7000009AAAF10101515C302908D0B84202DA5A
:103B800010F1040F06DA0121CDE9011015E0AAF1C8
:103B90000101E9E7002805DC049901440491AAEB3E
:103BA000000102E0411C514500DD8A460499401A9B
:103BB000401C01904FF000400290200704D401986F
:103BC000504501DBCDF8048000208DF84F000298AD
:103BD0000DF14F07B0F1004F25D02B200E90029829
:103BE0004FF0020800280CDA404202902D200E907F
:103BF00007E00A210298FCF769FD3031029007F8CE
:103C0000011DB8F10001A8F10108F2DC02980028BA
:103C1000EFD1791E0E980870307800F0200040F047
:103C2000450007F8020D12A8C01B00F10708149800
:103C3000007800B1012000EB0A01019801EBE0716E
:103C400005984144401A401E0590E00306D45B46A7
:103C50002146179A059800F05DF8054414980078FD
:103C600018B15A46179990476D1CE00324D55B465E
:103C70002146179A059800F04DF805441CE0049879
:103C8000002807DBDDE90301884203DD0098405C82
:103C9000179901E0179930205A469047049805F18A
:103CA0000105401C04900198401E019004D12E2073
:103CB0005A46179990476D1CBAF10001AAF1010A02
:103CC000DDDC05E017F8010B5A46179990476D1C8B
:103CD000B8F10001A8F10108F4DC5B462146179A0F
:103CE0000598ABE62D0000002B000000200000002E
:103CF0002DE9F041044600251E461746880404D4E9
:103D000005E039462020B0476D1C641EF9D52846D1
:103D1000BDE8F0812DE9F041044600251E4690469D
:103D2000C80301D5302700E02027880404D505E02A
:103D300041463846B0476D1C641EF9D52846BDE89B
:103D4000F0810A68531C0B601070704710B5044670
:103D500000214FF08040FEF7D2FE01218807FEF7D8
:103D6000A5FE00BF4FF08040FEF7ACFE04EBC4019F
:103D7000C9008842F6D300214FF08040FEF796FE3E
:103D800010BD00002DE9F041064637461348006893
:103D9000874201D100241EE000F03AFC7D6900F06A
:103DA00049FC0F480068854203D00E4800688542F0
:103DB00001D102240FE00C48854205D1B86A08B948
:103DC000032408E0022406E00848854200D00DB92B
:103DD000042400E001242046BDE8F08150010020C9
:103DE00054010020580100205811002044110020E7
:103DF0001CB501210220FEF749FA4FF44060009003
:103E000001208DF8040000208DF8060003208DF8B5
:103E1000050001208DF8070069460448FEF73CF8CC
:103E20004FF440610148FEF7A4F81CBD00040240B5
:103E3000FCF708FE00F0E4FA00F010FE00BFFEE719
:103E40002DE9F04105460E461C4807681C480068ED
:103E5000001D00F023FB50B91948006890F82C10A1
:103E60000120884017490968814316480160681C91
:103E700038B936B112480168091D134800F0BCFB7F
:103E80001AE07C190E4800684460BC4207D20C4816
:103E90000168091D0D48006800F094FB0CE008481B
:103EA0000168091D0A48006800F08CFB0948006899
:103EB000844201D207480460BDE8F081640100201B
:103EC00050010020680100205811002058010020F6
:103ED000540100208001002010B5044600F098FB3A
:103EE00024480068401C234908602348006840B902
:103EF000214804600846006801280DD100F01EF931
:103F00000AE01E48006838B91B480068C06AE16AC8
:103F1000884201D81848046019480068401C1849B4
:103F2000086008460068606494F82C1001208840FE
:103F300014490968084313490860E16A01EB8101EB
:103F4000114A02EB8100211D00F056FB00F072FBCC
:103F50000A48006868B108480068C06AE16A884297
:103F600007D24FF0805009490860BFF34F8FBFF36D
:103F70006F8F10BD60010020500100206C010020F7
:103F80007C01002068010020880E002004ED00E084
:103F900070B523E000F098FD1348006808B90120CF
:103FA00000E00020054600F0E9FEBDB900F030FB5E
:103FB0000D48C068C468201D00F070FA0B48006806
:103FC000401E0A4908600A480068401E0849086007
:103FD00000F030FB204600F00DF800BF04480068F8
:103FE0000028D7D170BD00004411002060010020DE
:103FF0005C01002010B50446206B00F02BFB20462E
:1040000000F028FB10BD000030B54FF4884317487E
:1040100000F007042CB1C01D20F00700134C041B56
:104020001B1B0246124C22600024114D6C60D018FC
:10403000083820F007000F4C206000240D4D2D683B
:104040006C600C4D2D682C601146441A4C60094C74
:1040500024680C60084D4C682C60084D4C682C603E
:104060004FF00044064D2C6030BD00006C11002064
:10407000940100209C010020A4010020A001002048
:10408000A801002000BFFFF783FF06480068012851
:10409000F9D94FF0805004490860BFF34F8FBFF348
:1040A0006F8FF0E7880E002004ED00E02DE9F05F4F
:1040B00081460E4617469A46DDF828800C9CB900CA
:1040C000A522206BFCF71BF9781E216B01EB800BFE
:1040D0002BF0070B002507E0715D04F1340041551A
:1040E000705D00B902E06D1C102DF5D300BF0021FA
:1040F00043200155B8F1200F01D34FF01F08C4F839
:104100002C80201D00F05BFA04F1180000F057FA33
:104110002461C8F12000A06164620020E064206591
:1041200084F8540052464946584600F053F920603E
:104130000B9808B10B980460BDE8F09F10B50024FF
:1041400007E004EB84010F4A02EB810000F02AFA39
:10415000641C202CF5D30C4800F024FA0B4800F026
:1041600021FA0B4800F01EFA0A4800F01BFA0A4830
:1041700000F018FA04480949086004480849086032
:1041800010BD0000880E0020081100201C11002026
:10419000301100204411002058110020540100204B
:1041A0005801002010B50146164800E00068036879
:1041B0008B42FBD30246436813448B4204D14368CD
:1041C0004C682344436001460A464B681344046824
:1041D000A34211D10C4C03682468A34208D04B6859
:1041E0000468646823444B6003681B680B6005E047
:1041F000054B1B680B6001E003680B60884200D030
:10420000016010BD940100209C0100202DE9F047C1
:1042100007460C4690460026206848B32046416871
:104220004968416000F1080142688A4202D1416850
:10423000496841604168D1F80C9000BF2046416850
:104240004968416000F1080142688A4202D1416830
:10425000496841604168CD6806EBC60007EB800104
:1042600043460122284600F0E3FA761C4D45E5D18D
:104270003046BDE8F08700000A490968096809B9B5
:10428000012100E0002121B14FF0FF31064A116009
:1042900006E004490968C968C868034A41681160B2
:1042A00070470000540100208001002002460021D8
:1042B00001E0521C491C1078A528FAD0890888B260
:1042C000704700BF502080F31188BFF34F8FBFF3BA
:1042D0006F8F00BF00BFFEE770B505460E46314642
:1042E0002846FCF725F82846FCF71BF8044602E0B0
:1042F00020202855641C0F2CFAD30020285528199B
:1043000070BD00002DE9F04105464FF0000800F0B7
:10431000DBFB2B48006808B9FFF776FE29480068E8
:104320002840002847D145B1083505F0070020B1E5
:1043300005F00700C0F108000544002D3BD02248DD
:104340000068854237D8214E3046046801E0264691
:1043500024686068A84202D220680028F7D1184873
:104360000068844227D0306800F108082068306077
:104370006068401B102807D967196068401B786087
:1043800065603846FFF70EFF0F4960680968081A34
:104390000D490860084600680D490968884203D243
:1043A000094800680A4908600649606809680843C6
:1043B00060600020206000F0E1FC4046BDE8F08134
:1043C0009C010020A8010020A001002094010020F1
:1043D000A4010020001F4FF080730360001F21F034
:1043E00001030360001F054B036014380260001FC7
:1043F0006FF002030360203870470000C3420008DA
:104400001CB50548012100234A02CDE9001003A193
:10441000054800F0EFFB1CBD480100207374617279
:10442000745F7461736B00002D4400081CB5044672
:1044300000F0EEF80E48022100238022CDE90010A2
:104440000CA10F4800F0D6FB0948183012210023B8
:104450004FF48062CDE900100AA10E4800F0CAFBBB
:104460000D48006800F07EF900F0E4F81CBD000083
:10447000300B00204350555F7461736B00000000E7
:10448000C9130008436861737369735F7461736B68
:1044900000000000A11900084801002001460A6937
:1044A000D1E901309860D1E9010358605068884231
:1044B00001D188685060002008611068401E1060BB
:1044C000106870472DE9F041044614B906480068A9
:1044D00000E0204607463D6B2846FFF7E7FE06460C
:1044E0003046BDE8F0810000500100202DE9F04188
:1044F0000546884616460024202700F0E5FA2248A3
:10450000006880453AD300BF7F1E07EB87021F4B30
:1045100003EB820104EBC40205EB82000122FFF7EA
:1045200075FE0444002FEFD104EBC40105EB8100BC
:10453000022217490968FFF769FE044404EBC4012D
:1045400005EB8100022213490968FFF75FFE04446E
:1045500004EBC40105EB810004220F49FFF756FE6E
:10456000044404EBC40105EB810003220B49FFF76F
:104570004DFE044416B10A480068306000F0FEFBAE
:104580002046BDE8F081000060010020880E002078
:10459000540100205801002044110020581100202F
:1045A000D801002000F1080141604FF0FF31816027
:1045B00000F10801C1600161002101607047002124
:1045C0000161704710B502460B685C1C0CB910699C
:1045D00007E002F1080000E04068446824689C425B
:1045E000FAD944684C604C68A160886041600A61F7
:1045F0001468641C146010BD42684A6093688B6044
:10460000936859609160086103685B1C03607047A0
:1046100000BF502080F31188BFF34F8FBFF36F8F1F
:1046200000BF03480068401C014908607047000053
:10463000AC01002006480068401E05490860084695
:10464000006820B9002080F3118800BF00BF7047C8
:10465000AC01002070B506463546D6B1083D2C4663
:104660000C4960680968084098B1206888B9094910
:10467000606809688843606000F026FA064960684F
:1046800009680844044908602046FFF78BFD00F0E4
:1046900075FB70BDA8010020A0010020064800683D
:1046A0004FF47A71B0FBF1F0401E4FF0E021486109
:1046B00007200861704700000000002070B5044624
:1046C000002544B100F000FA00212046FFF7B8FBB6
:1046D00000F054FB05463DB94FF080500349086097
:1046E000BFF34F8FBFF36F8F70BD000004ED00E08C
:1046F0002DE9F047044688464FF0000900F0E4F940
:1047000016480668206800EB08052068B04207D903
:104710002068A8420BD9B54209D94FF0010906E03B
:104720002068A84201D8B54201D94FF0010925609F
:10473000B9F1000F03D0A81B0021FFF781FB00F0A7
:104740001DFB07463FB94FF0805005490860BFF395
:104750004F8FBFF36F8FBDE8F0870000640100202A
:1047600004ED00E070B50546FFF752FF15B9274884
:10477000006800E028460446201DFFF78FFE78B948
:10478000E06A00EB8000224951F8200040B994F81B
:104790002C10012088401F49096881431D48016091
:1047A000A06A18B104F11800FFF778FE1A480068F3
:1047B000401C1949086015480068844209D1211D30
:1047C0001648FFF719FF16480068401C1449086096
:1047D00009E014480068401E124908602046FFF7AF
:1047E00009FCFFF749FDFFF725FF0F48006858B1A6
:1047F00006480068844207D14FF080500B4908609A
:10480000BFF34F8FBFF36F8F70BD000050010020CA
:10481000880E0020680100207C0100204411002047
:104820005C010020600100206C01002004ED00E02C
:104830002DE9F04107460C4690461E4617B9194827
:10484000006800E038460546256005F134006060E8
:10485000E86A2061286BE061686CA060207B032817
:1048600007D100F031F9A86A08B10220207300F0E6
:1048700085FA00206061E86CA061052E01D02673E6
:1048800003E03846FFF77EFA2073B8F1000F04D03A
:10489000286BFFF70BFD208401E000202084BDE899
:1048A000F081000050010020FEB505460020287070
:1048B0002B48006802902A49096801EBC101880071
:1048C000FFF720FD0446002C48D06A462046029996
:1048D000FFF70CFE029064210098B0FBF1F000900D
:1048E0000098002837D00020019030E0019800EBBC
:1048F000C00004EB800080690099B0FBF1F60198DC
:1049000000EBC00004EB800041682846FFF7E4FCA0
:1049100005465EB1019800EBC00004EB8000334611
:1049200010A182692846FEF78FFD09E0019800EB8F
:10493000C00004EB80000EA182692846FEF784FDCA
:104940002846FBF7EEFC05440198401C0190DDE988
:1049500001018842CAD32046FFF77CFEFEBD00005D
:10496000600100200925750909257525250D0A0016
:1049700009257509093C3125250D0A007FB5054635
:10498000002028703048006803902F49096801EB27
:10499000C1018800FFF7B6FC0446002C53D000226A
:1049A00020460399FFF7A2FD03900020029043E008
:1049B000029800EBC00004EB8000007B012806D0C9
:1049C000022806D0032806D0042808D105E0522684
:1049D00007E0422605E0532603E0442601E00026D6
:1049E00000BF00BF029800EBC00004EB80004168EC
:1049F0002846FFF771FC0546029800EBC00004EB67
:104A000080008068029901EBC10104EB8101098CEF
:104A1000CDE90010029800EBC00004EB80003246A4
:104A20000AA103692846FEF70FFD2846FBF779FC2B
:104A300005440298401C0290DDE902018842B7D388
:104A40002046FFF707FE7FBD6001002009256309AE
:104A500025750925750925750D0A00001CB5124834
:104A600000210B468022CDE9001010A1114800F072
:104A7000C1F80446012C16D100BF502080F31188E4
:104A8000BFF34F8FBFF36F8F00BF4FF0FF300A4966
:104A900008600120094908600020094908600949A7
:104AA000086000F069F81CBD8401002049444C45B1
:104AB0000000000085400008800100206C010020FB
:104AC00064010020D801002002480068401C014910
:104AD00008607047880100201F48006818B1012055
:104AE0001E49086037E000201C4908601C48006827
:104AF0001C490860084600681B49096888420BD9B0
:104B00001A49096801F14C00C96C164A1268164B23
:104B10001B68D21A114401601248006812490860EB
:104B200013480068B0FA80F0C0F11F0101EB810268
:104B3000104B03EB820042685268426000F10802A9
:104B40004368934202D14268526842604268D26828
:104B5000064B1A6000BF70478801002074010020D6
:104B6000D8010020900100208C010020500100207D
:104B700068010020880E002010B50E48006840F43F
:104B800070000C4908600846006840F070400860FA
:104B9000FFF784FD002008490860FBF71FFB07486A
:104BA000006840F0404005490860FBF707FB002023
:104BB00010BD000020ED00E0AC01002034EF00E06B
:104BC00010B500BF502080F31188BFF34F8FBFF3A3
:104BD0006F8F00BF00F044F818B14FF080500449C7
:104BE000086000BF002080F3118800BF10BD0000E6
:104BF00004ED00E02DE9FF4F85B080468946174659
:104C0000DDE912ABB800FFF77DFB064656B1582030
:104C1000FFF778FB04460CB1266304E03046FFF74B
:104C200019FD00E000247CB10020CDE900ABCDE906
:104C300002403A4649464046089BFFF737FA20466D
:104C4000FFF74AF9012501E04FF0FF35284609B08A
:104C5000BDE8F08F0149086870470000640100203A
:104C60002DE9F04100273A480068002863D139480F
:104C70000068451C374805608DB93748D0F800807A
:104C800036480068344908603448C0F80080344829
:104C90000068401C32490860FFF7EEFA00BF314857
:104CA000006885423BD300BF2B480068006808B904
:104CB000012000E0002020B14FF0FF3029490860BA
:104CC0002CE025480068C068C4686668B54202D216
:104CD0002448066022E0201DFFF7E0FBA06A18B11F
:104CE00004F11800FFF7DAFB94F82C10012088403B
:104CF0001D49096808431C490860E16A01EB81010C
:104D00001A4A02EB8100211DFFF776FC1849E06A80
:104D10000968C96A8842C7D30127C5E700BF14489C
:104D20000068C06A00EB8000104951F8200001289B
:104D300000D9012704E00F480068401C0D490860B5
:104D40000D48006800B101273846BDE8F081000039
:104D50008801002064010020540100205801002037
:104D6000780100208001002068010020880E0020CA
:104D700050010020700100207401002070B5002453
:104D80000026FFF745FC2E480068401E2C490860AD
:104D90000846006800284FD12A48006800284BD0F8
:104DA00024E02948C068C46804F11800FFF776FBC6
:104DB000201DFFF773FB94F82C1001208840234935
:104DC0000968084321490860E16A01EB8101204A32
:104DD00002EB8100211DFFF70FFC1E49E06A096804
:104DE000C96A884202D301201B490860164800683E
:104DF00008B9012000E000200028D2D00CB1FFF754
:104E00003BFA1648056865B100BFFFF729FF10B1EE
:104E10000120114908606D1E002DF6D100200F49B8
:104E200008600D48006838B1012630070C49086059
:104E3000BFF34F8FBFF36F8FFFF7FCFB304670BDA2
:104E4000880100206001002030110020680100204E
:104E5000880E002050010020740100207001002005
:104E600004ED00E0000000000000545452205245C0
:104E700047474553003031323334353637383941BE
:104E80004243444546000000A84E000800000020B0
:104E9000F001000068080008444F0008F0010020FD
:104EA000705F00008034000811847A030A680901E9
:104EB000020304060708090CA91079245123100ED7
:104EC0000341803F041C03F402496CA11C4C4C318B
:104ED0000412321A53083A53081A33041A34041AC3
:104EE00035041A360412371C706F3204123612322F
:104EF00012C816BC024F757413496E1462616C14AB
:104F00006D636C1461726D1466636E147069741B4A
:104F100067690C13726914616D721C6370740C12F2
:104F20006D1A5018190D0A22768D01731AAA0109FB
:104F30002A934011303132333435363738394142D3
:044F4000434445465B
:040000050800018965
:00000001FF
