:020000040800F2
:10000000D8660020550200086D1F0008F51E000884
:10001000691F0008F50A0008AD2D00080000000067
:100020000000000000000000000000009D0100082A
:10003000DB1D000800000000F1010008E1270008B6
:100040006F0200086F0200086F0200086F020008CC
:100050006F0200086F0200086F0200086F020008BC
:100060006F0200086F0200086F0200086F020008AC
:100070006F020008491A00086F020008711A000890
:100080006F020008AD1A00086F0200086F02000836
:10009000B50C0008110D00086F0200086F0200087F
:1000A0006F0200086F0200086F0200086F0200086C
:1000B000B92800086F0200083D2900086F020008F7
:1000C0006F0200086F0200086F0200086F0200084C
:1000D0006F0200086F0200086F0200086F0200083C
:1000E0006F0200086F0200086F0200086F0200082C
:1000F0006F0200086F0200086F0200086F0200081C
:100100006F0200086F0200086F0200086F0200080B
:100110006F0200086F0200086F020008BD29000886
:100120006F0200086F0200086F0200086F020008EB
:100130006F0200086F0200086F0200086F020008DB
:10014000650E00086F0200086F0200086F020008C9
:100150006F0200086F0200086F0200086F020008BB
:100160006F0200086F0200086F0200086F020008AB
:100170006F0200086F0200086F0200086F0200089B
:100180006F0200086F020008DFF80CD000F05AFB85
:1001900000480047AD3E0008D86600202A4B196889
:1001A0000868B0E8F04F80F30988BFF36F8F4FF015
:1001B000000080F3118870470000000006480068C6
:1001C000006880F3088862B661B6BFF34F8FBFF353
:1001D0006F8F00DF00BF00BF08ED00E0DFF80C000C
:1001E000016841F470010160704700BF88ED00E0D4
:1001F000EFF30980BFF36F8F134B1A681EF0100FD7
:1002000008BF20ED108A20E9F04F106008B44FF0CD
:10021000500080F31188BFF34F8FBFF36F8F04F04E
:1002200001FE4FF0000080F3118808BC19680868CF
:10023000B0E8F04F1EF0100F08BFB0EC108A80F34A
:100240000988BFF36F8F704750010020EFF30580DE
:10025000704700000648804706480047FEE7FEE773
:10026000FEE7FEE7FEE7FEE7FEE7FEE7FEE7FEE766
:10027000E9270008890100082DE9F05F0546002004
:1002800092469B4688460646814640241BE0284607
:1002900041464746224600F03EFA53465A46C01AA7
:1002A000914110D311461846224600F025FA2D1A26
:1002B00067EB01084F4622460120002100F01CFA9E
:1002C00017EB00094E41201EA4F10104DFDC484673
:1002D00031462A464346BDE8F09F40EA01039B07AA
:1002E00003D009E008C9121F08C0042AFAD203E0AB
:1002F00011F8013B00F8013B521EF9D27047D2B20F
:1003000001E000F8012B491EFBD270470022F6E7FE
:1003100010B513460A4604461946FFF7F0FF20467B
:1003200010BD421C10F8011B0029FBD1801A704738
:10033000034611F8012B00F8012B002AF9D11846C9
:1003400070472DE9FE4F804681EA0300C00F0C463E
:10035000009021F0004123F00045B8EB0200A941D4
:1003600005D24046214690461C460B46024623F0E5
:100370000040104347D0270DC7F30A00C3F30A51CA
:100380000290401A019040286BDAC3F3130040F446
:10039000801B0098924620B10023D2EB030A63EB46
:1003A0000B0B01985946C0F14002504600F0A4F9E9
:1003B00006460D4650465946019A00F0BCF910EB2E
:1003C00008006141002487EA115284EAE7731A4366
:1003D00040D0009A62B3019A012A4FEA075215DC15
:1003E000001B61EB02014FF0004202EA0752CDE927
:1003F0000042001C41F5801132462B4600F0BCF94A
:1004000003B0BDE8F08F40462146F9E7001B61EBE1
:100410000201001C41F5801300185B412018A2F571
:10042000001747EB030140EAD570B6196D4111E0A2
:100430006D084FEA360645EAC0754FEA0752001BC1
:1004400061EB0201001C41F5801149084FEA3000C0
:100450000019514132462B4603B0BDE8F04F00F081
:100460007CB90098012240000023D0EB020263EB2C
:10047000E073009821464FEAE074B8EB000061EBAE
:100480000401E9E783F000435BE781F0004158E7AE
:100490002DE9FE4F81EA030404F0004421F00041FD
:1004A00000944FF0000B23F0004350EA01045ED0AB
:1004B00052EA03045BD0C3F30A54C1F30A552C4437
:1004C000A4F2F3340194A0FB0254C1F3130141F4EC
:1004D0008011C3F3130343F4801301FB024400FBB8
:1004E000034E840A970A44EA815447EA8357A4FBDF
:1004F000076802958D0A05FB07854FEA932C04FBDC
:100500000C542705029D4FEA065847EA1637B5EB0B
:1005100008056EEB070C870E920E47EA811742EA38
:100520008312A7FB0201B6EB0B0164EB00042B0D59
:1005300043EA0C335E1844EB1C50DA465146E7FBA5
:100540000201C5F313044FEA0B3343EA14534FEA95
:100550000432019C43EA0603A4F10C040294009CBB
:10056000CDE900B400F008F903B0BDE8F08F002039
:100570000146F9E72DE9F04D81EA030404F0004B50
:1005800021F0004514464FF0000A23F0004150EAE4
:10059000050220D054EA01021DD0C5F30A570246D5
:1005A000C5F31303C1F31300C1F30A5640F48015D9
:1005B00043F48013A7EB0608101BD64608F2FD385B
:1005C00073EB050002D308F1010801E092185B41CA
:1005D000B8F1000F03DA00200146BDE8F08D0020DD
:1005E0004FF48011064684460EE0171B73EB050797
:1005F00005D3121B63EB050306434CEA010C4908C3
:100600004FEA300092185B4150EA0107EDD152EAFF
:10061000030012D082EA040083EA0501084305D0F2
:10062000101BAB4106D20122002306E000224FF04E
:10063000004302E06FF0010253101AEB06004CEB8E
:10064000085110EB0A0041EB0B01BDE8F04D00F042
:1006500084B80EB5C10F80EAE0700844CA070021D3
:1006600040F233438DE80E000A460B4600F084F852
:1006700003B000BD00F0004230F000400AD0C10DD0
:1006800001F56071C0F3160042EA0151C20840074B
:1006900011437047002001467047000030B5041E2A
:1006A00071F1000404DB4FF00044404264EB0101AF
:1006B000141E73F1000405DB1C464FF00043524248
:1006C00063EB0403994208BF904230BD30B50B463E
:1006D000014600202022012409E021FA02F59D4272
:1006E00005D303FA02F5491B04FA02F52844151E46
:1006F000A2F10102F1DC30BD202A04DB203A00FA2D
:1007000002F1002070479140C2F1200320FA03F368
:10071000194390407047202A04DB203A21FA02F066
:100720000021704721FA02F3D040C2F1200291402B
:10073000084319467047202A06DBCB17203A41FAB6
:1007400002F043EAE07306E041FA02F3D040C2F15E
:100750002002914008431946704710B5141E73F1EA
:10076000000408DA401C41F1000192185B411A4371
:1007700001D120F0010010BD2DE9F04D92469B46BD
:1007800011B1B1FA81F202E0B0FA80F22032904663
:10079000FFF7B2FF04460F4640EA0A0041EA0B01A8
:1007A00053465A46084313D0114653EA010019D064
:1007B000C8F140025046FFF7AEFF05460E465046D0
:1007C00059464246FFF798FF084305D0012004E050
:1007D00020463946BDE8F08D0020054346EAE07624
:1007E0002C4337430A986305E40AA0EB0800002273
:1007F000FD0A44EA47540A3002D500200146E9E7E1
:10080000010510196941DDE9084500196941BDE894
:10081000F04DA2E7C1F30A52C1F3130140F2FF33D6
:1008200041F480119A4202DA00200146704740F2FA
:1008300033439A42A2F2334202DC5242FFF76BBFCB
:10084000FFF75ABF064C074D06E0E06840F0010391
:1008500094E8070098471034AC42F6D3FFF798FCB1
:10086000B8560008D856000870B58C1810F8015B0F
:1008700015F0070301D110F8013B2A1106D110F839
:10088000012B03E010F8016B01F8016B5B1EF9D13D
:100890002B0705D40023521E0DD401F8013BFAE7C3
:1008A00010F8013BCB1A921C03E013F8015B01F82E
:1008B000015B521EF9D5A142D8D3002070BD21B1F1
:1008C000826842F00102826003E0826822F0010245
:1008D0008260704721B1826842F48072826003E0D6
:1008E000826822F480728260704721B1826842F48B
:1008F0000072826003E0826822F4007282607047B6
:1009000030B50246002000235068104C20400D797D
:100910000C6844EA05242043506090680C4C204049
:10092000D1E903542C438D682C434D7944EA4504A6
:1009300020439060D06A20F470000C7D641EE4B205
:10094000234340EA0350D06230BD0000FFFEFFFCAD
:10095000FDF7FFC0F0B504460D4600200021092D2B
:1009600011DDE068A5F10A0606EB4607072606FA40
:1009700007F18843A5F10A0606EB460603FA06F1DD
:100980000843E0600CE0206905EB4507072606FAFE
:1009900007F1884305EB450603FA06F10843206199
:1009A000072A0FDA606B561E06EB86071F2606FA2B
:1009B00007F18843561E06EB860605FA06F1084342
:1009C000606322E00D2A0FDA206BD61F06EB860744
:1009D0001F2606FA07F18843D61F06EB860605FA9E
:1009E00006F10843206310E0E06AA2F10D0606EB71
:1009F00086071F2606FA07F18843A2F10D0606EBCB
:100A0000860605FA06F10843E062F0BD816841F010
:100A1000804181607047000038B10849096841F49D
:100A20000001074AC2F8041306E00449096821F4EA
:100A30000001034AC2F80413704700000423014078
:100A40000020014070B500BF2549481EB0F1807FED
:100A500001D301201BE0481E4FF0E02250615017E7
:100A60000F22002807DA13071D0E1E4B00F00F049B
:100A7000241F1D5503E013071C0E1B4B1C5400BF05
:100A800000204FF0E0229061072010610020002834
:100A9000DAD101F093FE00F049FF00F02DF800F0EC
:100AA00053F902F0FFF902F011F800F093FC01F0A5
:100AB000CFFE01F013FF40F27121042001F01CFA77
:100AC00003F06EF900F0D4FE4021084801F0F1F97E
:100AD0000120074908704FF4967003F010F970BDBB
:100AE0004090020018ED00E000E400E00000024049
:100AF0002901002000BFFEE700B58BB003220021D2
:100B0000012004F01DFA6749C860002081F88800C0
:100B1000087003220021012004F012FA6249C86023
:100B2000002081F8880008700121084601F050FB80
:100B30000121480601F05CFB09220C215B4801F011
:100B400095F909220B21594801F090F94FF4C05052
:100B5000099002208DF828008DF8290000208DF8DA
:100B60002A0001208DF82B0009A9504801F036F920
:100B700014208DF8040000208DF8050002208DF867
:100B8000060001208DF8070001A801F0F1F91520F9
:100B90008DF8040000208DF8050004208DF8060073
:100BA00001208DF8070001A801F0E2F9404800F0AB
:100BB000C5F906A800F0FDFB00208DF81E000120FD
:100BC0008DF81F008DF8200000208DF821008DF891
:100BD000220001208DF8230000208DF81A008DF8E6
:100BE0001B000A208DF81C0001208DF81D00032039
:100BF000ADF8180006A92E4800F0D9FA00208DF8AB
:100C0000120001208DF8130000208DF8140044F22A
:100C10002000ADF8080044F24000ADF80A0044F2AC
:100C20006000ADF80C004FF48140ADF80E000020DC
:100C3000ADF8100001208DF8150002A800F09AF917
:100C400001208DF812008DF8130000208DF814009B
:100C500044F2A000ADF8080044F2C000ADF80A006C
:100C600044F2E000ADF80C004FF48240ADF80E0005
:100C70000120ADF810008DF8150002A800F07AF9F7
:100C8000012202210A4800F089FA012210210848B5
:100C900000F084FA01221146054800F07FFA0BB0FB
:100CA00000BD0000E45A0020705B002000000240FC
:100CB000006400400EB5002002900221114800F0AF
:100CC000DDF9E8B1104A00210E4800F0FAFA0221DD
:100CD0000C4800F0DFF80D4902AAC868002104F0B2
:100CE000F1FA0949D1E90301CDE9000106480EC82E
:100CF000064802F0CDFF0549C86802A904F0A6FA2B
:100D00000EBD000000640040FC5B0020E45A00209F
:100D100008B510210A4800F0B1F978B1094A01215B
:100D2000074800F0CEFA07480069009005480FC850
:100D300000F040FC1021024800F0ACF808BD0000B3
:100D400000640040FC5B002000B58BB00121022054
:100D500001F03EFA0121880601F04AFA09220D212C
:100D60003E4801F083F809220C213C4801F07EF84E
:100D70004FF44050029002208DF80C008DF80D00C9
:100D800000208DF80E0001208DF80F0002A93348D5
:100D900001F024F840208DF8040000208DF80500B3
:100DA00003208DF8060001208DF8070001A801F04E
:100DB000DFF841208DF80400294800F0BFF808A8AA
:100DC00000F0F7FA00208DF8260001208DF82700AA
:100DD0008DF828008DF8290000208DF82A000120C8
:100DE0008DF82B0000208DF822008DF823000A20BA
:100DF0008DF8240001208DF825000320ADF8200097
:100E000008A9174800F0D3F90F208DF81A00012027
:100E10008DF81B0000208DF81C0044F22000ADF876
:100E2000100042F22000ADF814004FF40150ADF86C
:100E300016000020ADF8180001208DF81D0004A850
:100E400000F098F801220221054800F0A7F90122DC
:100E50001146034800F0A2F90BB000BD00040240A7
:100E60000068004000B585B00221094800F006F98D
:100E700058B10221064800F00DF86A4600210448E6
:100E800000F01FFA684600F05FFC05B000BD0000EE
:100E900000680040B1F5007F3AD00FDC202928D04F
:100EA00006DC01291CD004291DD0082940D11DE0F1
:100EB000402921D0B1F5807F3AD126E0B1F5004F2D
:100EC00031D006DCB1F5806F25D0B1F5006F2FD1A0
:100ED00024E0B1F5803F12D0B1F5003F28D111E0F8
:100EE000154A826025E00822C26022E01022C2601A
:100EF0001FE0082202611CE01022026119E00822B2
:100F0000426016E01022426013E00422426010E0CA
:100F1000042242600DE0042242600AE00022826165
:100F20000422426005E0002282610422426000E067
:100F300000BF00BF704700000101010010B504466A
:100F40000B48844209D10121480601F061F90021D2
:100F50004FF0007001F05CF908E00121880601F013
:100F600057F900214FF0806001F052F910BD0000E8
:100F70000064004010B50021837A012202FA03F1D7
:100F80003D4A126842F001023B4B1A603A4A1C3259
:100F900012688A43384B1C331A60027BCAB9364A3E
:100FA0000C3212688A43344B0C331A604288C3886F
:100FB00042EA0343304A4032847A42F834300288AD
:100FC000838842EA03432C4A4032847A02EBC4020B
:100FD0005360027B012A19D1274A0C3212680A4356
:100FE000254B0C331A604288038842EA0343224AA5
:100FF0004032847A42F83430C288838842EA03431C
:101000001D4A4032847A02EBC4025360C27A3AB974
:10101000194A121D12688A43174B1B1D1A6006E0FD
:10102000154A121D12680A43134B1B1D1A600289D0
:1010300032B9114A143212688A430F4B14331A60C2
:101040000289012A06D10C4A143212680A430A4B5B
:1010500014331A60427B012A06D1074A1C321268F7
:101060000A43054B1C331A60034A126822F001023E
:10107000014B1A6010BD00000066004070B50446C8
:101080000D46002660692840002871D0B5F5807FA4
:101090005CD010DC082D35D006DC012D20D0022DCF
:1010A00024D0042D72D127E0102D31D0202D35D041
:1010B000402D6BD138E0B5F5004F60D009DCB5F5B7
:1010C000007F49D0B5F5806F4CD0B5F5006F5DD18C
:1010D0004FE0B5F5803F2DD0B5F5003F56D12FE05C
:1010E000A0682D4900F018FC064651E0E068032195
:1010F00000F012FC06464BE0E068082100F00CFC12
:10110000064645E0E068102100F006FC06463FE098
:101110002069032100F000FC064639E0206908211F
:1011200000F0FAFB064633E02069102100F0F4FBE2
:1011300006462DE06068082100F0EEFB064627E039
:101140006068102100F0E8FB064621E0A06901215B
:1011500000F0E2FB06461BE0A069022100F0DCFB88
:10116000064615E0A069042100F0D6FB06460FE014
:101170000FE0A069702100F0CFFB064608E0606830
:10118000042100F0C9FB064602E0FFE7002600BF8D
:1011900000E00026304670BD010101001AB143692C
:1011A0000B43436102E043698B434361704730B5B1
:1011B000024600200023146824F00204146014681E
:1011C00044F00104146000E05B1C546804F0010466
:1011D0001CB94FF6FF74A342F6D1546804F0010421
:1011E0000CB900206CE08C79012C04D1146844F017
:1011F0008004146003E0146824F080041460CC7947
:10120000012C04D1146844F04004146003E0146815
:1012100024F0400414600C7A012C04D1146844F0CA
:101220002004146003E0146824F0200414604C7A55
:10123000012C04D1146844F01004146003E0146815
:1012400024F0100414608C7A012C04D1146844F04A
:101250000804146003E0146824F008041460CC7AD5
:10126000012C04D1146844F00404146003E01468F1
:1012700024F0040414608C78A407CD7844EA056453
:101280000D7944EA05444D7944EA05540D886D1EF4
:101290002C43D461146824F001041460002300E09E
:1012A0005B1C546804F001041CB14FF6FF74A342A8
:1012B000F6D1546804F001040CB1002000E00120D4
:1012C00030BD10B500F5D87303EB01131B6803F0B4
:1012D00004031372137A53B900F5D87303EB0113A7
:1012E0001B6840F2FF7404EA5353136009E000F5F1
:1012F000D87303EB01131B686FF0604404EAD30357
:10130000536000F5D87303EB01131B6803F002036D
:10131000537200F5D87303EB01135B6803F00F03FE
:10132000937200F5D87303EB01135B681B0AD37447
:1013300000F5D87303EB01139B68D37200F5D873E3
:1013400003EB01139B681C0A147300F5D87303EBBD
:1013500001139B681C0C547300F5D87303EB011345
:101360009B681B0E937300F5D87303EB0113DB68C6
:10137000D37300F5D87303EB0113DB681C0A1474F4
:1013800000F5D87303EB0113DB681C0C547400F5F3
:10139000D87303EB0113DB681B0E937421B9C36888
:1013A00043F02003C36003E0036943F020030361BB
:1013B00010BD00218171C171017241728172C172CF
:1013C0008170C170032101710221417101210180ED
:1013D000704700000EB500200E4908600E480B460D
:1013E0000ECB0EC00121022000F002FF4FF6FF706D
:1013F00001905320ADF800000020ADF80200ADF8D8
:1014000008006946054801F01FFB0121034801F06F
:10141000EFFA0EBDC0010020145E00200004004061
:1014200058E04FF4C8712C48FEF770FF2A4803F0CB
:1014300029FC4FF4C8712948FEF768FF002408E032
:10144000274951F8240003F0C1F9264941F8240046
:10145000641C072CF4D3002003F0B8F9224908607B
:101460001E4803F0A5FB002000F066FF1FA100202E
:1014700001F018F8002000F05FFF28A1002001F023
:1014800011F8002000F058FF134A32A1002001F0AB
:1014900009F8002000F050FF14A1002001F002F82C
:1014A000002000F049FF2CA1002000F0FBFF0020ED
:1014B00000F042FF094A27A1002000F0F3FF0020BE
:1014C00000F03AFF2EA1002000F0ECFF4FF47A70FC
:1014D00003F078FAA5E70000C410002054120020A1
:1014E000A8100020E41300204C0100202D2D2D2DEC
:1014F0002D2D2D2D2D2D2D2D2D2D2D2D2D2D2D2D1C
:101500002D2D2D2D2D2D2D2D2D2D2D2D2D2D2D2D0B
:101510002D2D2D2D2D2D2D2D2D0D0A004E616D659E
:10152000202020205374617465205072696F7269A5
:101530007479202020202052656D61696E5374619A
:10154000636B202020202053657175656E63650DE7
:101550000A000000257300004E616D6520202020E8
:10156000202020202052756E436F756E74732020EA
:1015700020205573696E67526174650D0A00000082
:101580002D2D2D2D2D2D2D2D2D2D2D2D2D2D2D2D8B
:101590002D2D2D2D2D2D2D2D2D2D2D2D2D2D2D2D7B
:1015A0002D2D2D2D2D2D2D2D2D2D2D2D2D0D0A0AD1
:1015B000000000000FB410B50298A0F2052030B171
:1015C000012830D002285BD003282BD185E09DF87C
:1015D00014009DF8131040EA012000B25749A1F809
:1015E000A8039DF816109DF8150041EA002001B2ED
:1015F0005248A0F8AA139DF818109DF8170041EA68
:10160000002001B24D48A0F8AC139DF8191080F8E5
:10161000AE1300204A4908814A4800F04FFC484870
:1016200080ED0A0A86E09DF814009DF8131040EA48
:10163000012001B24148A0F8B0139DF816109DF8A2
:10164000150041EA002001B23C48A0F8B2139DF811
:1016500018109DF8170041EA002001B23748A0F8A1
:10166000B4139DF8191080F8B61300213448418155
:101670003448801C00F022FC314880ED0B0A59E010
:101680009DF814009DF8131040EA012001B22B4888
:10169000A0F8B8139DF816109DF8150041EA002037
:1016A00001B22648A0F8BA139DF818109DF817004B
:1016B00041EA002001B22148A0F8BC139DF819109E
:1016C00080F8BE1300211E4881811E48001D00F0D5
:1016D000F5FB1B4880ED0C0A2CE09DF814009DF8EA
:1016E000131040EA012001B21448A0F8C0139DF87D
:1016F00016109DF8150041EA002001B20F48A0F82D
:10170000C2139DF818109DF8170041EA002001B29D
:101710000A48A0F8C4139DF8191080F8C6130021D8
:101720000748C1810748801D00F0C8FB044880EDD0
:101730000D0A00BF00BF10BC5DF814FB5004002070
:10174000F0010020B00E002070B504462068A0F221
:10175000011010B101287FD153E04048B4F80B10BC
:1017600001800146B4F80D004880B4F80F0088806D
:101770003B49B4F81100C8803848B0F9000000288F
:1017800003DD3648B0F9000003E03448B0F900004A
:101790004042642822DA3148B0F90200002803DD13
:1017A0002E48B0F9020003E02C48B0F90200404294
:1017B000642813DA2948B0F90400002803DD27481B
:1017C000B0F9040003E02548B0F904004042B0F548
:1017D000FA6F03DA00202349087002E00120214952
:1017E00008701F48B0F90600642190FBF1F5284607
:1017F000FEF72FFF1C4AC2E90C0100201B4948825A
:101800002AE01748E17A01700146207B4870B4F85D
:101810000D008880E07B0872207C08730846007BFE
:1018200000F0010088700846007BC0F34000C870DB
:101830000846007BC0F3800048720846007BC0F376
:10184000C00088720846007BC0F300104873084649
:10185000007B4009C87200BF00BF70BD960E00201B
:10186000880E00202801002050040020F0010020F4
:101870001CB50121072000F0ABFCC0200090012026
:101880008DF8040000208DF8050069460F4800F02F
:10189000A5FA40210D4800F00CFB80210B4800F018
:1018A0000AFB3020009001208DF8040000208DF804
:1018B00005006946064800F091FA2021044800F02E
:1018C000FAFA1021024800F0F4FA1CBD00000240B0
:1018D0000008024008B500BF0D4802F081FA6420FC
:1018E00003F070F812E003F08DFD0090084802F05C
:1018F0001DFF01F05DFA00F019FB0121684603F0BD
:101900007BF8002002F062FF02490860EBE700006C
:10191000780800205C0000200246002002EA010353
:101920000BB1012000E000207047000000B587B037
:101930000121084600F04CFC0121022000F048FC87
:101940000121480700F054FC3020059003208DF859
:10195000180002208DF8190005A9134800F03EFA7E
:101960003021114800F0A7FA002001900290039066
:101970000220049001A9002000F02CF801A91020F9
:1019800000F028F80121002000F010F801211020BB
:1019900000F00CF80021084600F036F80021084657
:1019A00000F042F807B000BD0000024039B1084A1B
:1019B0001268012383401A43054B1A6006E0044A6B
:1019C0001268012383409A43014B1A60704700005C
:1019D0000074004030B5002200230A4C226840F613
:1019E000FE748440A243D1E900452C438D682C430A
:1019F000CD6844EA050303FA00F42243014C226057
:101A000030BD00000074004008B500220092054A75
:101A1000009200F10802009B1A440092009A1160A3
:101A200008BD00000074004008B500220092054A7D
:101A3000009200F11402009B1A440092009A116077
:101A400008BD00000074004010B50649064800F0CB
:101A500037F930B10120054908700249024800F009
:101A600053F810BD0080201040600240BD010020EE
:101A700010B50A490A4800F023F970B1094908482D
:101A800000F028F80549064800F03EF80021044817
:101A900000F054F800200449087010BD2080002098
:101AA00070600240200000207A00002010B5074935
:101AB000074800F005F938B10449054800F024F85A
:101AC0000021034800F03AF810BD000000802020FB
:101AD000A06002400246094B9A4201D2084801E048
:101AE0000648103801F000531BB1064B0B40C36091
:101AF00002E0044B0B40836070470000106402401A
:101B0000006002407D0F7D0F0246094B9A4201D2D0
:101B1000084801E00648103801F000531BB1064B9D
:101B20000B40C36002E0044B0B4083607047000031
:101B300010640240006002407D0F7D0F21B10268F9
:101B400042F00102026003E0026822F0010202603A
:101B500070470000016821F001010160002101606F
:101B600041608160C1600161212141614A4988422F
:101B700004D13D21484A103A91608CE04649183121
:101B8000884205D14FF47461434A103A916082E073
:101B900041493031884205D14FF474113E4A103A20
:101BA000916078E03C494831884205D14FF074613A
:101BB000394A103A91606EE037496031884204D169
:101BC0003649354A103AD16065E033497831884268
:101BD00004D13349304A103AD1605CE02E4990314B
:101BE000884204D12F492C4A103AD16053E02A4947
:101BF000A831884205D14FF03D51274A103AD160B3
:101C000049E02949884204D13D21274A083A116018
:101C100041E025491831884205D14FF47461224AC8
:101C2000083A116037E020493031884205D14FF43D
:101C300074111D4A083A11602DE01B494831884251
:101C400005D14FF07461184A083A116023E0164933
:101C50006031884204D11149134A121F11601AE001
:101C600011497831884204D10D490F4A121F116081
:101C700011E00D499031884204D10A490A4A121FE5
:101C8000116008E00849A831884204D14FF03D5165
:101C9000054A121F11607047106002403D0000208D
:101CA000400F002000003D2010640240014600204B
:101CB0000A6802F001020AB1012000E0002070472A
:101CC00070B50246002000240025124EB24201D217
:101CD000114B01E00F4B103B104E0E4036B11E264B
:101CE00006EAD124166806EA040502E0566906F001
:101CF000800501F000560EB15C6800E01C68084EDB
:101D0000344004EA010616B10DB1012000E00020C4
:101D100070BD000010640240006002403C0F3C0FA8
:101D20007D0F7D0F10B501F080034BB122B14369E7
:101D300043F08003436103E0436923F08003436180
:101D400080290BD02AB1036801F01E0423430360ED
:101D500004E0036801F01E04A343036010BD00000B
:101D600010B500220268134B1A40CC680B6823435D
:101D70004C6923438C692343CC6923430C6A234376
:101D80004C6A23438C6A23434C6B23438C6B234361
:101D90001A430260426922F00702D1E90B3423435F
:101DA0001A4342610B6943604B6883608B68C36070
:101DB00010BD00003F801CF0002101604160816087
:101DC000C160016141618161C16101624162816201
:101DD000C16201634163816370477047F0B50A4691
:101DE00000210023002400BF3DE0012505FA01F396
:101DF000156805EA03049C4234D105684F000326A8
:101E0000BE40B543056015794E00B54006683543C0
:101E100005601579012D02D01579022D16D185683E
:101E20004F000326BE40B543856055794E00B5404E
:101E3000866835438560456801268E40B543456018
:101E4000456896798E40B6B235434560C5684F0007
:101E50000326BE40B543C560D5794E00B540C6687F
:101E60003543C560491C1029BFD3F0BDF0B5002330
:101E700000244D07ED0E02FA05F3CE1000F1200507
:101E800055F826504E07F70E0F26BE40B543CF102B
:101E900000F1200646F82750CE1000F1200555F835
:101EA000265045EA0304CE1000F1200545F82640EF
:101EB000F0BD4183704701837047000008B50B49AE
:101EC000096889B200910188BDF80020511A89B2D1
:101ED00000EE901AF8EE600A9FED051AC0EE811A26
:101EE000B0EE610ABDF80010018008BD2404004076
:101EF0000024744900BFFEE770B505460C4645F264
:101F0000555000F02BF8284600F01CF8204600F051
:101F10001FF800F00FF800F001F870BD4CF6CC404F
:101F200001490860704700000030004010B500F023
:101F300001F810BD4AF6AA20014908607047000068
:101F40000030004001494860704700000030004008
:101F50000149886070470000003000400149086076
:101F6000704700000030004000BFFEE770470000EF
:101F700070B5002100230F22C4781CB3174C2468CD
:101F800004F4E064C4F5E064C4F30721C1F104047F
:101F9000E3B20A4144789C40E1B284781440214382
:101FA0000C07210E0E4C05786155047804F01F05CE
:101FB0000124AC4005786D11AD0005F1E025C5F8B0
:101FC000004109E0047804F01F050124AC40054DF0
:101FD0000678761145F8264070BD00000CED00E053
:101FE00000E400E080E100E000B597B00121084680
:101FF00000F0EEF81020159003208DF858008DF8B1
:10200000590015A93B48FFF7E9FE0121880500F0BA
:10201000DFF83948FFF79EFD06A8FFF7CDFE3748E9
:10202000079037480890002009905A200A90002015
:102030000B904FF480600C9040000D9080000E904B
:1020400040110F904002109006A92B48FFF788FE20
:1020500001212948FFF772FD0121080200F0E8F88C
:10206000694626484C38FEF74BFC002000900120C2
:102070008DF804008DF805000020039004900320E3
:102080008DF8140069461D484C38FEF739FC0120D4
:10209000FEF7C2FC07230122042118484C38FEF742
:1020A00059FC07230222092114484C38FEF752FC40
:1020B00007230322102111484C38FEF74BFC012165
:1020C0000E484C38FEF706FC01210C484C38FEF750
:1020D0000CFC012109484C38FEF7FCFB01210748A4
:1020E0004C38FEF7ECFB05484C38FEF78FFC17B078
:1020F00000BD000000000240106402404C2001407E
:10210000105C00201CB50121052000F061F8C02002
:10211000009001208DF8040000208DF8050069462C
:102120000B48FFF75BFE40210948FFF7C2FE802104
:102130000748FFF7C0FE3020009001208DF8040012
:1021400000208DF8050069460248FFF747FE1CBDD8
:10215000000002400008024000B587B00121084697
:1021600000F036F81020059003208DF818000220AA
:102170008DF8190005A91548FFF730FE1021134806
:10218000FFF799FE0121480700F032F80020019086
:10219000029003900220049001A90020FFF71AFC8E
:1021A00001A91020FFF716FC01210020FFF7FEFB1C
:1021B00001211020FFF7FAFB00210846FFF724FC5D
:1021C00000210846FFF730FC07B000BD00000240C8
:1021D00029B1064A12680243044B1A6004E0034A1C
:1021E00012688243014B1A60704700003038024089
:1021F00029B1064A12680243044B1A6004E0034AFC
:1022000012688243014B1A60704700004038024058
:1022100029B1064A12680243044B1A6004E0034ADB
:1022200012688243014B1A60704700002038024058
:1022300029B1064A12680243044B1A6004E0034ABB
:1022400012688243014B1A60704700004438024014
:10225000F0B5002100220024022500260223324F7F
:102260003F6807F00C0121B1042905D0082937D1B6
:1022700005E02E4F076036E02D4F076033E02A4F10
:102280003F1F3F68C7F38056274F3F1F3F6807F047
:102290003F036EB1264FB7FBF3F7DFF88CC0ACF10C
:1022A000040CDCF800C0CCF3881C07FB0CF40CE039
:1022B0001E4FB7FBF3F7DFF870C0ACF1040CDCF88D
:1022C00000C0CCF3881C07FB0CF4174F3F1F3F687E
:1022D000C7F301477F1C7D00B4FBF5F7076002E000
:1022E000124F076000BF00BF0F4F3F6807F0F001BB
:1022F0000909104F7A5C0768D74047600A4F3F686A
:1023000007F4E051890A0B4F7A5C4768D740876031
:10231000054F3F6807F46041490B064F7A5C4768F8
:10232000D740C760F0BD0000083802400024F40028
:1023300000127A00140000202DE9F8430446DFF86B
:102340008C8000BF98F8000008B900F063FE00BF61
:102350000027FF208DF80000102C31D21C48005DB2
:102360008DF80100194D1835EFF3118080462020BB
:1023700080F3118800BF00BF287D00F00300022811
:1023800007D11448047002226946284600F096FFDF
:102390000FE0284600F076FE0646022E07D30D48D1
:1023A000047002226946284600F0C3FF01E04FF0A6
:1023B000FF3708F0FF0080F3118800BF00BF01E085
:1023C0004FF0FF373846BDE8F8830000205E00205C
:1023D000DC010020EC0100202DE9F04104460D460F
:1023E00016460E4F00BF387808B900F013FE00BF44
:1023F000EFF311800746202080F3118800BF00BF53
:1024000032462946204600F00BF88046F8B280F3A9
:10241000118800BF00BF4046BDE8F081205E00206B
:102420002DE9F047074688461646C24607EB4701A6
:102430001B4800EBC109D9F8140020B1012811D0C4
:10244000022826D11EE0484600F01CFE0546B54293
:1024500001D2002405E0344632465146484600F099
:1024600068FF18E0484600F00DFE0546B54201D26F
:10247000284600E03046044622465146484600F0D1
:1024800058FF08E032465146484600F017FF044620
:1024900001E0002400BF00BF2046BDE8F087000037
:1024A000385E00200FB438B5044606A800906A468E
:1024B0002046059900F007F80546002000902846C0
:1024C00038BC5DF814FB2DE9F04F99B082460D46FB
:1024D000144603A814904020159000201690CDF8C3
:1024E00060A0179000BF2E786D1C06B9DDE0252E88
:1024F00079D100274FF0010900BF2E78232E12D08A
:102500002B2E0CD02D2E02D0302E10D103E047F010
:1025100001076D1C0EE047F002076D1C0AE047F052
:1025200004076D1C06E047F008076D1C02E04FF041
:10253000000900BF00BFB9F1000FDED14FF0000865
:1025400000BF2E78302E01DB392E00DD07E06D1C38
:10255000A6F1300008EB880100EB4108F1E700BF6D
:10256000002013902E782E2E12D16D1C00BF2E78D5
:10257000302E01DB392E00DD09E06D1CA6F13000A4
:10258000139901EB810100EB41001390EFE700BFCD
:102590002E7800BF6C2E01D0682E02D16D1C2E78D3
:1025A00000E000E0F6E700BF702E5DD008DC252ECD
:1025B0006AD0582E35D0632E09D0642E69D113E02D
:1025C000732E3CD0752E1DD0782E62D128E0216864
:1025D000081D2060D1F8009009F0FF0B594614A89F
:1025E00000F04AFE56E058E02168081D2060D1F84E
:1025F0000090CDE900870A22494614A8139B00F0F9
:102600004FFD47E02168081D2060D1F80090CDE91A
:1026100000870A22494614A8139B00F0B7FD39E051
:1026200000BF2168081D2060D1F80090CDE9008727
:102630001022494614A8139B00F0A8FD2AE0216847
:10264000081D2060D1F800B000BF9BF800600BF1BE
:10265000010B06B906E0314614A800F00DFE1798EC
:102660000028F2DA00BF15E02168081D2060D1F8CB
:102670000090002008210B461022CDE900104946A9
:1026800014A800F083FD05E0252114A800F0F4FD56
:1026900000E000BF00BF6D1C03E0314614A800F04D
:1026A000EBFD17980028BFF61EAF00BF1798002853
:1026B0000ADD169820B103A95046169AFFF78CFE42
:1026C000DDE9161008441790179819B0BDE8F08F8F
:1026D0000CB50020019000903448006840F4803030
:1026E0003249086000BF3148006800F400300090B3
:1026F0000198401C0190009818B90198B0F5A04FBE
:10270000F1D12A48006800F4003010B10120009097
:1027100001E0002000900098012846D12348403075
:10272000006840F08050214940310860204800682E
:1027300040F440401E4908601C48083000681B49AE
:10274000083108600846006840F400400860084608
:10275000006840F4A05008601648091F0860081F70
:10276000006840F08070091F086000BF0F480068D3
:1027700000F000700028F9D040F205700E490860A2
:102780000A480830006820F0030008490831086052
:102790000846006840F00200086000BF03480830A7
:1027A000006800F00C000828F8D10CBD0038024089
:1027B0000070004008544007003C024010B5FFF78D
:1027C00013FCFFF7C9FCFFF79DFC20210348FFF72E
:1027D00072FB10210148FFF76CFB10BD000802409E
:1027E00010B502F093FB10BD10B51548006840F419
:1027F0007000134908601348006840F00100114957
:10280000086000200F49083108600E4800680E4932
:1028100008400C4908600D48091D0860081F006841
:1028200020F48020091F0860002006490C31086050
:10283000FFF74EFF4FF0006001498039086010BD7E
:1028400088ED00E000380240FFFFF6FE1030002463
:102850001FB501210846FFF7CBFC0020ADF80C00A6
:10286000ADF80400ADF806008DF80E004FF6FF70CD
:1028700002901C208DF8000001208DF8030002203A
:102880008DF8010000208DF802006846FFF770FB0C
:1028900001A94FF0804000F0D7F80121880700F02F
:1028A000A1F800220121880700F0C2F800214FF0B2
:1028B000804000F09DF81FBD10B50121880700F091
:1028C000A6F840B10121880700F08FF8024800689F
:1028D000401C0149086010BDB00100201FB5012156
:1028E0000420FFF785FC40F2E73002904720ADF866
:1028F00004000020ADF80600ADF80C0001A90E4858
:1029000000F0A2F8012211460B4800F091F80121D5
:10291000094800F06DF81E208DF8000001208DF8A8
:10292000010000208DF8020001208DF803006846A8
:10293000FFF71EFB1FBD00000008004010B52DED85
:10294000028B0121164800F062F830B31548007878
:10295000F8B91548FFF7B2FA1448D0ED000A30EE86
:10296000200A80ED000AFFF7E1FA10480068FDF741
:1029700081FE41EC180B9FED0E0B53EC102BFDF775
:102980008DFE06D20120074908700B49486902F004
:102990006DF80121024800F028F8BDEC028B10BD53
:1029A00000080040BC010020B4010020B801002054
:1029B0000000000000001440A810002010B5012104
:1029C000064800F024F840B105480068401C04495E
:1029D00008600121014800F008F810BD0014004013
:1029E000D8010020CA4302827047CA43028270475E
:1029F00021B1028842F00102028004E002884FF611
:102A0000FE731A40028070470146486A704730B52D
:102A10000246002000230024158A05EA0103958957
:102A200005EA010413B10CB1012000E0002030BD23
:102A30001AB183890B43838102E083898B438381AD
:102A4000704741627047000000220288184B98428C
:102A50000ED0184B98420BD0B0F1804F08D0164BD7
:102A6000984205D0154B984202D0154B984204D19C
:102A70004FF68F731A404B881A43124B984207D077
:102A8000114B984204D04FF6FF431A400B891A436A
:102A900002804B68C3620B880385054B984202D0C5
:102AA000044B984201D18B7A0386012383827047BD
:102AB0000000014000040140000400400008004004
:102AC000000C0040001000400014004000B597B01A
:102AD00001210420FFF77CFB0121C804FFF788FBDC
:102AE00008220A216C48FFF7C1F908220B216A4825
:102AF000FFF7BCF94FF48060119002208DF8480078
:102B000000208DF84A0003208DF8490000208DF840
:102B10004B0011A96048FFF761F94FF40060119074
:102B200002208DF8480000208DF84A0003208DF81F
:102B3000490000208DF84B0011A95748FFF74EF9C6
:102B40004FF4E13013900020ADF85000ADF8520082
:102B5000ADF854000C20ADF856000020ADF8580038
:102B600013A94E4800F0B8F801214C4800F09EF837
:102B700001224021494800F0A5F80D208DF84000C1
:102B800002208DF8410001208DF842008DF84300AD
:102B900010A8FFF7EDF901214805FFF719FB4048A0
:102BA000FEF7D8FF4FF0006001903C48001D0290F6
:102BB0003C480390002004902D20059000200690B2
:102BC0004FF4806007900020089009904FF48070C7
:102BD0000A904FF440300B9000200C900D900E9016
:102BE0000F9001A92E48FFF7BBF8012210212C48B5
:102BF000FFF798F801212A48FEF7A0FF0122802163
:102C0000264800F05FF80F208DF8400003208DF873
:102C1000410001208DF842008DF8430010A8FFF715
:102C2000A7F91F483030FEF795FF00BF1C48303031
:102C3000FFF73CF80028F9D14FF0006001901748E9
:102C4000001D0290184803904020049080200590B9
:102C5000002006904FF480600790002008900990B3
:102C60000A904FF400300B9000200C900D900E90C5
:102C70000F9001A90A483030FFF772F801221021A5
:102C800007483030FFF74EF8002105483030FEF796
:102C900055FF17B000BD000000080240004C004086
:102CA00040600240645D0020DC0E002021B182897A
:102CB00042F40052828104E082894DF6FF731A408B
:102CC000828170471AB1838A0B43838202E0838A30
:102CD0008B438382704700002DE9FF4705460E466F
:102CE0000024A14600BFA046B08900B100BF2C8AD5
:102CF00024F44054F08804432C82AC8941F20C60E7
:102D00008443B08831890843718908430443AC8106
:102D1000AC8A24F44074B0890443AC826846FFF75F
:102D200097FA2048854202D01F48854202D1DDF83B
:102D30000C9001E0DDF80890A88900F4004040B153
:102D400009EBC90000EB091031684900B0FBF1F74D
:102D500007E009EBC90000EB091031688900B0FBFE
:102D6000F1F76420B7FBF0F004012009642101FBB6
:102D70001078A88900F4004040B1322000EBC80070
:102D8000B0FBF1F000F00700044308E0322000EB54
:102D900008106421B0FBF1F000F00F0004432C8117
:102DA000BDE8FF87001001400014014000BFFEE7AE
:102DB00010B5364890ED100A354880ED000A3548C8
:102DC000B0F9CA0300EE100AB8EEC00A304880ED30
:102DD000010A3148007800EE100AB8EE400A2C488B
:102DE00080ED020A2C4890ED010A294880ED030A83
:102DF000264890ED090AF2EE0C0A30EE600A2448EB
:102E000080ED040A214890ED0A0AD0ED090A30EE5F
:102E1000600AF2EE0C0A30EE600A1D4880ED050AE9
:102E20001C48B0F9CC0300EE100AB8EEC00A1848EE
:102E300080ED060A1748B0F9D40300EE100AB8EE88
:102E4000C00A134880ED070A1248B0F9DC0300EE0F
:102E5000100AB8EEC00A0E4880ED080A0D48B0F915
:102E6000E40300EE100AB8EEC00A094880ED090A32
:102E7000282201460948FDF730FA2C20084908604D
:102E800001210748001FFEF759FE10BD380200203F
:102E9000C45C00205004002010100020EC5C0020D6
:102EA000A460024000B587B00020544981F8280092
:102EB00081F82900802081F82A007F2081F82B00EA
:102EC00011208DF8000000208DF801008DF802001F
:102ED00001208DF803006846FFF74AF801214805F4
:102EE000FFF776F94648FEF735FE4FF0006045499A
:102EF000086045484860414888604020C8602C20F0
:102F00000861002048614FF4806088610020C8613A
:102F1000086248624FF4403088620020C86208634B
:102F2000486388633648FEF71BFF38493448FEF78C
:102F3000D1FD012210213248FEF7F4FE0021304875
:102F4000FEF7FCFD01210846FFF742F90121480484
:102F5000FFF74EF9072202212D48FEF787FF0722CF
:102F600003212B48FEF782FF0420019002208DF8F8
:102F7000080000208DF80A0003208DF809000020C9
:102F80008DF80B0001A92248FEF728FF08200190C8
:102F900002208DF8080000208DF80A0003208DF82B
:102FA000090000208DF80B0001A91948FEF716FF53
:102FB0004FF4E13003900020ADF81000ADF812009E
:102FC000ADF814000C20ADF816000020ADF8180084
:102FD00003A90D48001FFFF77FFE01210A48001FCB
:102FE000FFF764FE012280210748001FFFF76AFEF9
:102FF00001210348FEF7A2FD07B000BDEC5C0020F4
:10300000A0600240185D0020044400400000202021
:103010000000024070B5144CA8212046FDF776F957
:1030200003202061606111A0A0611349E1614FF4A8
:10303000806121620021A1626162E1620BA02066D1
:103040000E4961661021A16600212167E166616772
:10305000002505E0C5F10F000949085C60556D1CAD
:10306000102DF7D370BD0000205E00205465726DF6
:10307000696E616C00000000C85E0020C86200201C
:103080009456000810B501460A69CB689A4204D8E4
:103090008C68641EE41AA01801E0D41A601E10BDEA
:1030A0002DE9FC5F06460F4692469846DDE90C4541
:1030B000002F01DA784200E0384683464FF00109DC
:1030C00003E09BFBFAFB09F10109D345F9DAC84596
:1030D00000D9C14634B1002F03DB05F004000428F9
:1030E00000D1641E05F0020010B1B8F1000F11D03C
:1030F00005F0010070B96CB108E0641E2021304673
:1031000000F0BAF8F068002800DA02E00CB1A1453E
:10311000F3D300BFF068002836DB002F05DA7F42CA
:103120002D21304600F0A8F807E005F0040004283F
:1031300003D12B21304600F09FF8F068002823DBF4
:1031400005F00200022814D105F0010088B9B8F199
:10315000000F0ED16CB108E0641E3021304600F043
:103160008BF8F068002800DA02E00CB1A145F3D337
:1031700000BFF068002807DB434652463946304618
:10318000CDE9004500F002F8BDE8FC9F2DE9FC5FA9
:103190008046894615461E460C9CCDF804900127B2
:1031A000BB4605E00198B0FBF5F001900BF1010B77
:1031B0000198A842F6D25E4500D9B3460D9800F0BA
:1031C0000100D0B9CCB10D9800F00200022803D163
:1031D00016B93020009001E02020009009E0641E24
:1031E0004046009900F048F8D8F80C00002800DAB2
:1031F00002E00CB1A345F2D300BFD8F80C000028C0
:1032000035DB09E0012E01D9761E04E0B9FBF7FA9F
:10321000AA4500D201E06F43F4E700BF00BFB9FB4D
:10322000F7FA0AFB1799134810F80A10404600F005
:1032300023F8D8F80C00002800DA03E0B7FBF5F714
:10324000002FECD100BF0D9800F0010078B174B1EF
:1032500009E0641E2021404600F00EF8D8F80C006A
:10326000002800DA02E00CB1A345F2D300BFBDE8AC
:10327000FC9F0000A556000870B504460E46A568E0
:10328000681C6168814206D320684655681CA060AE
:10329000E068401CE060D4E9011088420DD1A268CA
:1032A00021682069FFF798F8A168884203D04FF0A1
:1032B000FF30E06001E00020A06070BD2DE9F05F0C
:1032C0000446894617464FF0000AE56800BFD4F867
:1032D0001080A84503D9A8EB0500461E04E0A5EB25
:1032E0000800401CA1680E1AA068401BB04201D91A
:1032F000304601E0A068401B0646BE4201D230467F
:1033000000E038460646606800EB050B3246494649
:103310005846FCF7E2FFB244B144BF1B3544A068F5
:10332000A84200D10025E560002FD0D15046BDE86D
:10333000F09F2DE9F047044689461546E668A068E7
:10334000871BAF420AD9606800EB060A2A46494645
:103350005046FCF7C2FF7019E06014E0B8466068A0
:1033600000EB060A424649465046FCF7B6FFA5EB7D
:103370000708D4F804A009EB070142465046FCF7C1
:10338000ACFFC4F80C80BDE8F08700000FB4084B18
:1033900010B504A902AA039800F0DEF8044602A9B9
:1033A000002000F070FC204610BC5DF814FB00000B
:1033B000873C000802E008C8121F08C1002AFAD1A1
:1033C00070477047002001E001C1121F002AFBD1A5
:1033D000704700002DE9FF5F82B00021DDE9043075
:1033E000020DDDF840B0034318D044F61050A2F2AD
:1033F000FF3242431514119801281FD0A5EB0B0092
:10340000401C5FEA000A4FF000064E4FDFF838918B
:10341000B046504615D5CAF1000413E011980124B6
:103420004AA3012801D16FEA0B010298119AC0E961
:103430000031C0E9024206B0BDE8F09FCBF10000C8
:10344000DFE704460021404A491842EB0450CDE929
:10345000001012E0E00707D032463B46404649469E
:10346000FDF716F88046894632463B461046194617
:10347000FDF70EF806460F466410002CEAD1DDE990
:103480000401DDE90023BAF1000F06DAFDF700F8C8
:1034900042464B46FCF7FCFF05E0FDF76BF8424661
:1034A0004B46FDF767F804460E460022284BFDF711
:1034B000F5F803D84FF0FF30014607E00022254B16
:1034C00020463146FCF73DFFFDF7A4F9102409E042
:1034D000002C0ADB0A220023FCF7CEFE039B3032CD
:1034E0001A55641E50EA0102F2D1641C039AC4F119
:1034F00011031444119A012A03D0012208430DD16B
:103500000AE0084304D000204FF0110B119072E73D
:10351000A3EB0B056D1E0DE05B4504DD4FF00002D3
:1035200005F1010504E003DA4FF00002A5F1010501
:10353000002AECD002981199C0E90231C0E9004597
:1035400079E70000000014400000F03F3000000068
:103550000000F0430000E03F2DE9FF4F95B09B468F
:103560008946064600250FE2252877D10024274604
:10357000F84A0121059400E0044316F8013F203B7E
:1035800001FA03F01042F7D130782A2811D06FF0F9
:103590002F033078A0F13002092A16D8059A44F09A
:1035A000020402EB820203EB42021044761C0590F7
:1035B000EFE759F8042B0592002A03DA504244F44D
:1035C0000054059044F00204761C30782E2816D161
:1035D00016F8010F44F004042A280DD06FF02F02D2
:1035E0003078A0F13003092B09D807EB870302EBF1
:1035F0004303C718761CF3E759F8047B761C307830
:103600006C280FD006DC4C2817D068280DD06A280B
:1036100014D104E0742810D07A280FD10DE044F4BE
:1036200000140AE044F4801401E044F44014727879
:10363000824202D104F58014761C761C307866280C
:103640000BD013DC582877D009DC002875D045282A
:10365000F6D04628F4D047281AD19DE118E0632817
:1036600035D0642879D0652812D195E1702873D0BF
:1036700008DC6728F1D069286FD06E280DD06F283C
:1036800006D1B5E073282CD0752875D0782874D071
:103690005A46179990476D1C75E1C4F302500228F1
:1036A00009D003280DD0D9F8001004280DD00D60E2
:1036B00009F1040967E1D9F80010EA17C1E90052DD
:1036C000F6E7D9F800100D80F2E70D70F0E719F871
:1036D000041B8DF8001000208DF80100EA4601203F
:1036E00003E059F804AB4FF0FF3061074FF00001E1
:1036F00002D40DE008F101018846B9420FDA804595
:10370000F8DB1AF808100029F4D108E008F10101EB
:1037100088468142FADB1AF808100029F6D105988C
:103720005B46A0EB080721463846179A00F094FA4A
:10373000284400EB080507E04DE029E10DE01AF808
:10374000010B5A4617999047B8F10108F7D25B462A
:1037500021463846179A13E142E00A220092C4F348
:1037600002524FF0000A022A08D059F804CB032A6B
:103770004FEAEC710AD00DE029E02AE009F10701D7
:1037800021F00702F2E802C1914609E00FFA8CFC31
:103790004FEAEC71042A03D14FFA8CFC4FEAEC712A
:1037A000002907DA0A460021DCF1000C61EB020176
:1037B0002D2202E0220504D52B228DF804200122BF
:1037C00003E0E20701D02022F7E7904659E00A2102
:1037D00002E010220DE010214FF0000A00910BE0F2
:1037E00010224FF0000A44F004040827009203E07E
:1037F00008224FF0000A0092C4F30252022A05D0B8
:1038000059F804CB0021032A08D009E009F1070187
:1038100021F00702F2E802C1914605E01FFA8CFC94
:10382000042A01D10CF0FF0C4FF00008220728D524
:10383000702806D0009B83F0100353EA0A0305D0DA
:103840000EE040228DF80420012208E05CEA01022B
:1038500006D030228DF804208DF805000222904613
:10386000009B83F0080353EA0A030AD15CEA0102D1
:1038700001D1620705D530228DF804204FF00108F0
:103880007F1E582804D034A003900EA802900DE0AB
:1038900036A0F9E753466046009AFCF7EDFC8446F3
:1038A0000398825C0298401E029002705CEA01005C
:1038B000F0D1029806A9081A00F1200A600702D583
:1038C00024F4803400E00127574502DDA7EB0A000D
:1038D00000E0002000EB0A01009005984144401AE6
:1038E0000590E00306D45B462146179A059800F040
:1038F000B3F90544002706E001A85A46C05D1799B0
:1039000090476D1C7F1C4745F6DBE0030CD55B46FA
:103910002146179A059800F09FF9054404E03020ED
:103920005A46179990476D1C0099481E009000292F
:10393000F5DC08E0029802995A460078491C029189
:10394000179990476D1CBAF10001AAF1010AF1DC48
:1039500065E1000009280100303132333435363753
:1039600038396162636465660000000030313233CB
:10397000343536373839414243444546000000006B
:1039800000F058F90544761C307800287FF4ECAD3F
:1039900019B02846BDE8F08F620700D4062709F168
:1039A000070222F0070CFCE80223E14603F000487E
:1039B0005FEA080C02D00FF2702C0DE05FEA045CA5
:1039C00002D50FF2682C07E05FEAC47C02D00FF248
:1039D000602C01E0AFF2700C4FF0FF3823F0004391
:1039E000CDF850C065280CD006DC452809D0462803
:1039F0001DD047283DD13DE0662818D067287ED1EC
:103A000038E00021112F01DB112000E0781CCDE906
:103A1000000106A90EA8FFF7DDFCDDE90F010E9AF3
:103A200003910021009207F1010A04914DE04FF04B
:103A300000400097CDE9011006A90EA8FFF7CAFCC7
:103A4000DDE90F0203920E9B11990022DDF80CA014
:103A50000093049211B9791C00EB010AB7EB0A003C
:103A600004D4C0F1FF3007F1010A0490AAEB07006B
:103A7000019044E0012F00DA01270021112F01DD20
:103A8000112000E03846CDE9000106A90EA8FFF795
:103A9000A1FCDDE90F010E9A03910021049100922F
:103AA000BA4621070CD40399514500DA8A46BAF187
:103AB000010F05DD009AAAF10101515C302908D0FF
:103AC000B84202DA10F1040F06DA0121CDE9011043
:103AD00015E0AAF10101E9E7002805DC0499014499
:103AE0000491AAEB000102E0411C514500DD8A4629
:103AF0000499401A401C01904FF0004002902007AA
:103B000004D40198504501DBCDF8048000208DF8E5
:103B10004F0002980DF14F07B0F1004F25D02B2038
:103B20000E9002984FF0020800280CDA40420290F2
:103B30002D200E9007E00A210298FCF7C7FD3031D6
:103B4000029007F8011DB8F10001A8F10108F2DCAC
:103B500002980028EFD1791E0E980870307800F096
:103B6000200040F0450007F8020D12A8C01B00F12C
:103B700007081498007800B1012000EB0A010198B1
:103B800001EBE07105984144401A401E0590E003A6
:103B900006D45B462146179A059800F05DF8054467
:103BA0001498007818B15A46179990476D1CE00395
:103BB00024D55B462146179A059800F04DF8054438
:103BC0001CE00498002807DBDDE90301884203DDDF
:103BD0000098405C179901E0179930205A469047A9
:103BE000049805F10105401C04900198401E0190C5
:103BF00004D12E205A46179990476D1CBAF1000146
:103C0000AAF1010ADDDC05E017F8010B5A46179905
:103C100090476D1CB8F10001A8F10108F4DC5B4687
:103C20002146179A0598ABE62D0000002B000000F6
:103C3000200000002DE9F041044600251E461746ED
:103C4000880404D405E039462020B0476D1C641E6A
:103C5000F9D52846BDE8F0812DE9F041044600255C
:103C60001E469046C80301D5302700E0202788046F
:103C700004D505E041463846B0476D1C641EF9D5B1
:103C80002846BDE8F0810A68531C0B60107070472D
:103C90000FB42DE9F041044600271C2000F07AFC07
:103CA000054625B97F1CBDE8F0015DF814FB142220
:103CB00007A92846FCF711FB00206861606820B95D
:103CC0000020A8616560A56004E0A068A861A06804
:103CD0004561A5602078401C2070207808280CDD04
:103CE000666870696060002061688861304600F035
:103CF00035FE2078401E207000BF00BFD3E710B50E
:103D0000044600214FF08040FEF79BFE012188070A
:103D1000FEF76EFE00BF4FF08040FEF775FE04EB2D
:103D2000C401C9008842F6D300214FF08040FEF75D
:103D30005FFE10BD2DE9F041064637461348006886
:103D4000874201D100241EE000F0E6FD7D6900F00D
:103D5000F5FD0F480068854203D00E480068854293
:103D600001D102240FE00C48854205D1B86A08B998
:103D7000032408E0022406E00848854200D00DB97B
:103D8000042400E001242046BDE8F0815001002019
:103D90005401002058010020D0160020BC1600203D
:103DA0001CB501210220FEF713FA4FF44060009089
:103DB00001208DF8040000208DF8060003208DF806
:103DC000050001208DF8070069460448FEF706F853
:103DD0004FF440610148FEF76EF81CBD000402403C
:103DE00070B5044600252C48C4F86C0500202080DE
:103DF0006080A08000BF4CE0EAB205EB450101EB1A
:103E0000C50304F10C0101EB8300012100F056F819
:103E10009FED220A04F1BC0000EB851080ED020A40
:103E2000B3EE040A04F1BC0000EB851080ED030A38
:103E3000B7EE000A04F1BC0000EB851080ED040A27
:103E40009FED160A04F1BC0000EB851080ED050A19
:103E50009FED130A04F1BC0000EB851080ED0A0A07
:103E60009FED100A04F1BC0000EB851080ED0B0AF9
:103E70009FED0A0A04F1BC0000EB851080ED000AFA
:103E80009FED090A04F1BC0000EB851080ED0F0ADC
:103E90006D1C042DB0DB70BDE45A00200000000052
:103EA00000007A4400401C4500007A46FCF7CAFD39
:103EB00000F0EEFB00F078FF00BFFEE70170027536
:103EC00000234375C382038383839FED170A80ED2C
:103ED000080A9FED150A80ED090A80F8283021B103
:103EE000012903D002291BD109E01AE09FED0F0A36
:103EF00080ED010A9FED0E0A80ED020A11E09FEDB0
:103F00000D0A80ED010A9FED0A0A80ED020A9FED7D
:103F10000A0A80ED030A9FED090A80ED040A00E019
:103F200000BF00BF70470000000000000000A03A82
:103F30005077D63D17B7513A0060EA4600007A46FE
:103F4000CA788B7842EA032212B2C2824A790B798C
:103F500042EA032212B28283704700002DE9F04149
:103F600005460E461C4807681C480068001D00F006
:103F700018FC50B91948006890F82C1001208840AE
:103F800017490968814316480160681C38B936B181
:103F900012480168091D134800F0B2FC1AE07C19B0
:103FA0000E4800684460BC4207D20C480168091DF5
:103FB0000D48006800F08AFC0CE008480168091D03
:103FC0000A48006800F082FC09480068844201D277
:103FD00007480460BDE8F081640100205001002022
:103FE00068010020D0160020580100205401002054
:103FF0008001002010B5044600F08EFC24480068C3
:10400000401C234908602348006840B921480460E7
:104010000846006801280DD100F07EF90AE01E482C
:10402000006838B91B480068C06AE16A884201D854
:104030001848046019480068401C18490860084680
:104040000068606494F82C100120884014490968C5
:10405000084313490860E16A01EB8101114A02EB50
:104060008100211D00F04CFC00F068FC0A4800684B
:1040700068B108480068C06AE16A884207D24FF018
:10408000805009490860BFF34F8FBFF36F8F10BD99
:1040900060010020500100206C0100207C01002004
:1040A000680100200014002004ED00E070B523E05A
:1040B00000F0B0FE1348006808B9012000E00020BD
:1040C000054601F073FABDB900F026FC0D48C06842
:1040D000C468201D00F065FB0B480068401E0A49BB
:1040E00008600A480068401E0849086000F026FC85
:1040F000204600F057F800BF044800680028D7D1D8
:1041000070BD0000BC160020600100205C01002092
:1041100070B504460D46206C70B1216CE06808440F
:10412000E0606168E068884201D32068E06028466A
:10413000226CE168FCF7D1F870BD2DE9F04104462E
:104140000F4615464FF00008A66B206C28B37DB9CA
:104150003946226CA068FCF7C0F8216CA0680844BE
:10416000A060D4E90110884217D32068A06014E051
:104170003946226CE068FCF7B0F8216CE068401A20
:10418000E0602168E068884203D2216C6068401AD0
:10419000E060022D01D106B1761E701CA06340467E
:1041A000BDE8F08110B50446206B00F0D7FB204637
:1041B00000F0D4FB10BD000030B54FF48843174821
:1041C00000F007042CB1C01D20F00700134C041BA5
:1041D0001B1B0246124C22600024114D6C60D0184B
:1041E000083820F007000F4C206000240D4D2D688A
:1041F0006C600C4D2D682C601146441A4C60094CC3
:1042000024680C60084D4C682C60084D4C682C608C
:104210004FF00044064D2C6030BD0000E416002035
:10422000940100209C010020A4010020A001002096
:10423000A801002000BFFFF739FF064800680128E9
:10424000F9D94FF0805004490860BFF34F8FBFF396
:104250006F8FF0E70014002004ED00E02DE9F0413D
:1042600006460D4617469846069C0DB9246000E0A8
:104270002760E66325640121204600F01BFF84F8D7
:104280004C80BDE8F0812DE9F05F81460E4617466F
:104290009A46DDF828800C9CB900A522206BFCF71B
:1042A0002EF8781E216B01EB800B2BF0070B0025FD
:1042B00007E0715D04F134004155705D00B902E022
:1042C0006D1C102DF5D300BF002143200155B8F11E
:1042D000200F01D34FF01F08C4F82C80201D00F0E0
:1042E000F2FA04F1180000F0EEFA2461C8F120009F
:1042F000A06164620020E064206584F854005246A6
:104300004946584600F0AEF920600B9808B10B986A
:104310000460BDE8F09F000010B5002407E004EB46
:1043200084010F4A02EB810000F0C0FA641C202CCB
:10433000F5D30C4800F0BAFA0B4800F0B7FA0B4876
:1043400000F0B4FA0A4800F0B1FA0A4800F0AEFAF8
:1043500004480949086004480849086010BD000085
:10436000001400208016002094160020A8160020BB
:10437000BC160020D0160020540100205801002057
:1043800010B50146164800E0006803688B42FBD375
:104390000246436813448B4204D143684C6823446B
:1043A000436001460A464B6813440468A34211D196
:1043B0000C4C03682468A34208D04B680468646806
:1043C00023444B6003681B680B6005E0054B1B68CA
:1043D0000B6001E003680B60884200D0016010BDF3
:1043E000940100209C01002070B5054600F094FA6D
:1043F000A86B08B9012400E0002400F09FFA2046D1
:1044000070BD70B5054600F087FAA86BE96B88426D
:1044100001D1012400E0002400F090FA204670BD94
:104420002DE9F04707460C4690460026206848B321
:10443000204641684968416000F1080142688A42AB
:1044400002D14168496841604168D1F80C9000BFD1
:10445000204641684968416000F1080142688A428B
:1044600002D14168496841604168CD6806EBC600E9
:1044700007EB800143460122284600F05DFB761CD5
:104480004D45E5D13046BDE8F08700000A4909688E
:10449000096809B9012100E0002121B14FF0FF3185
:1044A000064A116006E004490968C968C868034AF9
:1044B0004168116070470000540100208001002015
:1044C0000246002101E0521C491C1078A528FAD0B0
:1044D000890888B2704700BF502080F31188BFF36D
:1044E0004F8FBFF36F8F00BF00BFFEE770B504466C
:1044F00000F012FA94F9455010E0606A08B9012002
:1045000000E0002038B904F1240001F00FF818B1E0
:1045100000F028FC00E003E0681E45B2002DECDC52
:1045200000BFFF2084F8450000F008FA00F0F4F91D
:1045300094F9445010E0206908B9012000E00020FF
:1045400048B904F1100000F0F1FF08B100F00AFCD6
:10455000681E45B200E001E0002DECDC00BFFF204A
:1045600084F8440000F0EAF970BD70B505460E46C7
:1045700031462846FBF7DCFE2846FBF7D2FE044610
:1045800002E020202855641C0F2CFAD30020285567
:10459000281970BD2DE9F04105464FF0000800F0E4
:1045A00039FC2B48006808B9FFF706FE2948006867
:1045B0002840002847D145B1083505F0070020B153
:1045C00005F00700C0F108000544002D3BD022484B
:1045D0000068854237D8214E3046046801E02646FF
:1045E00024686068A84202D220680028F7D11848E1
:1045F0000068844227D0306800F1080820683060E5
:104600006068401B102807D967196068401B7860F4
:1046100065603846FFF7B4FE0F4960680968081AFC
:104620000D490860084600680D490968884203D2B0
:10463000094800680A490860064960680968084333
:1046400060600020206000F0B1FF4046BDE8F081CE
:104650009C010020A8010020A0010020940100205E
:10466000A4010020001F4FF080730360001F21F0A1
:1046700001030360001F054B036014380260001F34
:104680006FF002030360203870470000D744000831
:104690001CB50548012100234A02CDE9001003A101
:1046A000054800F07FFE1CBD480100207374617254
:1046B000745F7461736B0000BD4600081CB504464E
:1046C00000F02AF90E48022100238022CDE90010D3
:1046D0000CA10F4800F066FE094818301221002393
:1046E0004FF48062CDE900100AA10E4800F05AFE96
:1046F0000D48006800F0BAF900F020F91CBD000078
:10470000A81000204350555F7461736B00000000D7
:1047100021140008436861737369735F7461736B7C
:1047200000000000D5180008480100202DE9F843DA
:10473000064600200090D6F86C5500235A1E1946F4
:10474000E86800F019FCAC6821E02768A7F20120B6
:104750001DF8000088B90121A7F201200DF8001012
:10476000014601EB410202EBC10206F10C0101EB33
:10477000820004F10B01FFF7E3FBD4F81880204618
:1047800000F0ECF82878401E2870444600BF002C4A
:10479000DBD100231A461946E86800F0CBFCBDE8DF
:1047A000F88301460A69D1E901309860D1E9010333
:1047B00058605068884201D18868506000200861C4
:1047C0001068401E10601068704700002DE9F0412D
:1047D000044614B90648006800E0204607463D6BD1
:1047E0002846FFF76DFE06463046BDE8F081000022
:1047F000500100202DE9F041054688461646002468
:10480000202700F007FB2248006880453AD300BF0C
:104810007F1E07EB87021F4B03EB820104EBC402F0
:1048200005EB82000122FFF7FBFD0444002FEFD1CE
:1048300004EBC40105EB8100022217490968FFF768
:10484000EFFD044404EBC40105EB8100022213498F
:104850000968FFF7E5FD044404EBC40105EB8100A2
:1048600004220F49FFF7DCFD044404EBC40105EB0F
:10487000810003220B49FFF7D3FD044416B10A4817
:104880000068306000F092FE2046BDE8F081000034
:104890006001002000140020540100205801002075
:1048A000BC160020D0160020D801002000F108011D
:1048B00041604FF0FF31816000F10801C16001618A
:1048C00000210160704700210161704710B5024668
:1048D0000B685C1C0CB9106907E002F1080000E0ED
:1048E0004068446824689C42FAD944684C604C682B
:1048F000A160886041600A611468641C146010BD86
:1049000042684A6093688B6093685960916008615F
:1049100003685B1C0360704700BF502080F3118860
:10492000BFF34F8FBFF36F8F00BF03480068401C79
:104930000149086070470000AC010020064800688B
:10494000401E054908600846006820B9002080F331
:10495000118800BF00BF7047AC01002070B506464B
:104960003546D6B1083D2C460C49606809680840B8
:1049700098B1206888B9094960680968884360600F
:1049800000F048FA0649606809680844044908606C
:104990002046FFF7F5FC00F009FE70BDA8010020DD
:1049A000A0010020064800684FF47A71B0FBF1F0D6
:1049B000401E4FF0E0214861072008617047000069
:1049C0000000002070B50446002544B100F022FA32
:1049D00000212046FFF7C2FA00F0E8FD05463DB988
:1049E0004FF0805003490860BFF34F8FBFF36F8FC4
:1049F00070BD000004ED00E02DE9F0470446884654
:104A00004FF0000900F006FA16480668206800EB2F
:104A100008052068B04207D92068A8420BD9B542E2
:104A200009D94FF0010906E02068A84201D8B54233
:104A300001D94FF001092560B9F1000F03D0A81B7F
:104A40000021FFF78BFA00F0B1FD07463FB94FF0A8
:104A5000805005490860BFF34F8FBFF36F8FBDE8EB
:104A6000F08700006401002004ED00E070B5054609
:104A7000FFF752FF15B92748006800E028460446B2
:104A8000201DFFF78EFE78B9E06A00EB8000224916
:104A900051F8200040B994F82C10012088401F499B
:104AA000096881431D480160A06A18B104F118002B
:104AB000FFF777FE1A480068401C1949086015483E
:104AC0000068844209D1211D1648FFF719FF1648D6
:104AD0000068401C1449086009E014480068401E42
:104AE000124908602046FFF75DFBFFF7CFFCFFF798
:104AF00025FF0F48006858B106480068844207D176
:104B00004FF080500B490860BFF34F8FBFF36F8F9A
:104B100070BD00005001002000140020680100203A
:104B20007C010020BC1600205C01002060010020F8
:104B30006C01002004ED00E02DE9F04107460C4631
:104B400090461E4617B91948006800E038460546E9
:104B5000256005F134006060E86A2061286BE0613F
:104B6000686CA060207B032807D100F053F9A86A85
:104B700008B10220207300F019FD00206061E86C8C
:104B8000A061052E01D0267303E03846FFF7D2F866
:104B90002073B8F1000F04D0286BFFF791FC20843C
:104BA00001E000202084BDE8F081000050010020D9
:104BB000FEB50546002028702B48006802902A495F
:104BC000096801EBC1018800FFF7E4FC0446002CF2
:104BD00048D06A4620460299FFF70CFE02906421F5
:104BE0000098B0FBF1F000900098002837D000202A
:104BF000019030E0019800EBC00004EB8000806978
:104C00000099B0FBF1F6019800EBC00004EB8000C6
:104C100041682846FFF7A9FC05465EB1019800EB04
:104C2000C00004EB8000334610A182692846FEF7DD
:104C3000ADFB09E0019800EBC00004EB80000EA181
:104C400082692846FEF7A2FB2846FBF76AFB05446B
:104C50000198401C0190DDE901018842CAD3204639
:104C6000FFF77CFEFEBD00006001002009257509EC
:104C700009257525250D0A0009257509093C3125E9
:104C8000250D0A007FB505460020287030480068D1
:104C900003902F49096801EBC1018800FFF77AFCF6
:104CA0000446002C53D0002220460399FFF7A2FDB2
:104CB00003900020029043E0029800EBC00004EB58
:104CC0008000007B012806D0022806D0032806D0E9
:104CD000042808D105E0522607E0422605E05326C5
:104CE00003E0442601E0002600BF00BF029800EB6D
:104CF000C00004EB800041682846FFF736FC0546FB
:104D0000029800EBC00004EB80008068029901EB80
:104D1000C10104EB8101098CCDE90010029800EB80
:104D2000C00004EB800032460AA103692846FEF762
:104D30002DFB2846FBF7F5FA05440298401C02902B
:104D4000DDE902018842B7D32046FFF707FE7FBDA9
:104D50006001002009256309257509257509257558
:104D60000D0A00000120014908607047740100200D
:104D700070B505460C460548016818312846FFF70E
:104D8000A5FD01212046FFF7E9F870BD5001002084
:104D900003490968016003490968416070470000E0
:104DA00078010020640100201CB5124800210B4648
:104DB0008022CDE9001010A1114800F0F3FA04465A
:104DC000012C16D100BF502080F31188BFF34F8F04
:104DD000BFF36F8F00BF4FF0FF300A49086001201A
:104DE000094908600020094908600949086000F085
:104DF00069F81CBD8401002049444C4500000000B6
:104E000035420008800100206C0100206401002070
:104E1000D801002002480068401C01490860704722
:104E2000880100201F48006818B101201E49086051
:104E300037E000201C4908601C4800681C490860D5
:104E4000084600681B49096888420BD91A49096855
:104E500001F14C00C96C164A1268164B1B68D21A35
:104E60001144016012480068124908601348006844
:104E7000B0FA80F0C0F11F0101EB8102104B03EB8F
:104E8000820042685268426000F10802436893421F
:104E900002D14268526842604268D268064B1A608A
:104EA00000BF70478801002074010020D801002055
:104EB000900100208C01002050010020680100209A
:104EC0000014002010B50E48006840F470000C4932
:104ED00008600846006840F070400860FFF762FD17
:104EE000002008490860FBF779F90748006840F09E
:104EF000404005490860FBF761F9002010BD000043
:104F000020ED00E0AC01002034EF00E010B500BF60
:104F1000502080F31188BFF34F8FBFF36F8F00BF16
:104F200000F076FA18B14FF080500449086000BFD5
:104F3000002080F3118800BF10BD000004ED00E0E8
:104F40002DE9F84307460D4690460DB9002601E0CD
:104F500007FB05F606F15000FFF71CFB044644B1C1
:104F600004F1500943464A46294638460094FFF763
:104F700075F92046BDE8F8832DE9FF4782B0054664
:104F800089461E464FF0000A2C4600BFFFF7C4FCBE
:104F9000D4F83880B8F1000F36D0E768494620468B
:104FA000FFF7B6F8B6B9A8F10100A063206908B907
:104FB000012000E0002008BB04F1100000F0B6FA68
:104FC000E0B14FF080503A490860BFF34F8FBFF314
:104FD0006F8F13E0E760606A08B9012000E00020ED
:104FE00060B904F1240000F0A1FA38B14FF080500C
:104FF0002F490860BFF34F8FBFF36F8FFFF79EFC01
:10500000012006B0BDE8F087049818B9FFF796FCB8
:105010000020F6E7BAF1000F04D16846FFF7B8FEAA
:105020004FF0010AFFF78AFCFFF7F4FEFFF774FC6C
:1050300094F94400401C10B9002084F8440094F90D
:105040004500401C10B9002084F84500FFF776FCAD
:1050500004A9684600F078F9F0B92046FFF7C4F9D2
:10506000A0B104F124000499FFF782FE2046FFF767
:105070003DFA00F09BFA002888D14FF080500C498F
:105080000860BFF34F8FBFF36F8F7FE72046FFF7B6
:105090002DFA00F08BFA79E72046FFF727FA00F0A7
:1050A00085FA2046FFF7A0F90028EED00020A8E7F7
:1050B00004ED00E070B505460E462C46FFF72CFCCB
:1050C000D4E90F12206801FB020060600020A06399
:1050D0002068A060E06B401E226C216800FB02107B
:1050E000E060FF2084F8440084F845009EB9206900
:1050F00008B9012000E00020A8B904F1100000F078
:1051000015FA80B14FF0805009490860BFF34F8F06
:10511000BFF36F8F07E004F11000FFF7C7FB04F146
:105120002400FFF7C3FBFFF709FC012070BD00005E
:1051300004ED00E02DE9FF4383B0074688461D4695
:105140004FF000093C4600BFFFF7E6FBA06BE16BA8
:10515000884201D3022D28D12A4641462046FEF737
:10516000ECFF0646606A08B9012000E0002068B93B
:1051700004F1240000F0DAF988B14FF08050324990
:105180000860BFF34F8FBFF36F8F08E03EB14FF061
:1051900080502D490860BFF34F8FBFF36F8FFFF72B
:1051A000CDFB012007B0BDE8F083059818B9FFF7E3
:1051B000C5FB0020F6E7B9F1000F04D101A8FFF705
:1051C000E7FD4FF00109FFF7B9FBFFF723FEFFF7FB
:1051D000A3FB94F94400401C10B9002084F844005B
:1051E00094F94500401C10B9002084F84500FFF7F1
:1051F000A5FB05A901A800F0A7F8F0B92046FFF724
:1052000000F9A0B104F110000599FFF7B1FD2046A7
:10521000FFF76CF900F0CAF9002895D14FF08050E3
:1052200009490860BFF34F8FBFF36F8F8CE72046AB
:10523000FFF75CF900F0BAF986E72046FFF756F968
:1052400000F0B4F90020ADE704ED00E02DE9F047EF
:1052500005460E462C4600BF5021EFF3118081F326
:105260001188BFF34F8FBFF36F8F00BF8046D4F814
:105270003890E06B48451DD994F945A009F101002B
:10528000A0630AF1010070B9606A08B9012000E06A
:10529000002068B904F1240000F048F940B13EB1A3
:1052A0000120306004E00AF1010040B284F84500BA
:1052B000012700E0002700BF88F3118800BF3846AF
:1052C000BDE8F0872DE9F05F05468A4616462C4674
:1052D00000BF5021EFF3118081F31188BFF34F8F8E
:1052E000BFF36F8F00BF8046D4F83890B9F1000F3C
:1052F00021D094F944B051462046FEF709FFA9F1A8
:105300000100A0630BF1010070B9206908B9012008
:1053100000E0002068B904F1100000F007F940B186
:105320003EB10120306004E00BF1010040B284F88E
:105330004400012700E0002700BF88F3118800BF68
:105340003846BDE8F09F000070B504460D46FFF7F3
:10535000E3FA124802682868401C08B9002619E0E0
:105360000F4920680968884204D06068904201D8DB
:1053700001260FE06068101A2968884209D228685F
:105380006168511A401A28602046FFF701FD002687
:1053900000E00126FFF7D2FA304670BD640100201C
:1053A000780100202DE9FF4F85B0804689461746D9
:1053B000DDE912ABB800FFF7EDF8064656B158200C
:1053C000FFF7E8F804460CB1266304E03046FFF727
:1053D000C5FA00E000247CB10020CDE900ABCDE9A6
:1053E00002403A4649464046089BFEF74CFF20469D
:1053F000FEF700FE012501E04FF0FF35284609B019
:10540000BDE8F08F01490868704700006401002082
:105410002DE9F04100273A480068002863D1394857
:105420000068451C374805608DB93748D0F80080C2
:1054300036480068344908603448C0F80080344871
:105440000068401C32490860FFF720F800BF31486F
:10545000006885423BD300BF2B480068006808B94C
:10546000012000E0002020B14FF0FF302949086002
:105470002CE025480068C068C4686668B54202D25E
:105480002448066022E0201DFFF78BF9A06A18B1BE
:1054900004F11800FFF785F994F82C1001208840DA
:1054A0001D49096808431C490860E16A01EB810154
:1054B0001A4A02EB8100211DFFF722FA1849E06A1F
:1054C0000968C96A8842C7D30127C5E700BF1448E5
:1054D0000068C06A00EB8000104951F820000128E4
:1054E00000D9012704E00F480068401C0D490860FE
:1054F0000D48006800B101273846BDE8F081000082
:10550000880100206401002054010020580100207F
:105510007801002080010020680100200014002094
:1055200050010020700100207401002070B5064673
:10553000F068C46804F11800FFF733F915480068F3
:10554000A8B9201DFFF72DF994F82C1001208840F0
:1055500011490968084310490860E16A01EB8101BB
:105560000E4A02EB8100211DFFF7CAF904E004F1A5
:1055700018010B48FFF7C4F90A49E06A0968C96ACB
:10558000884204D9012501200749086000E0002570
:10559000284670BD8801002068010020001400200A
:1055A000A8160020500100207401002070B50024CE
:1055B0000026FFF7B1F92E480068401E2C4908600C
:1055C0000846006800284FD12A48006800284BD0C0
:1055D00024E02948C068C46804F11800FFF7E1F826
:1055E000201DFFF7DEF894F82C1001208840234995
:1055F0000968084321490860E16A01EB8101204AFA
:1056000002EB8100211DFFF77BF91E49E06A096862
:10561000C96A884202D301201B4908601648006805
:1056200008B9012000E000200028D2D00CB1FEF71C
:105630002DFF1648056865B100BFFFF7E9FE10B100
:105640000120114908606D1E002DF6D100200F4980
:1056500008600D48006838B1012630070C49086021
:10566000BFF34F8FBFF36F8FFFF768F9304670BD00
:105670008801002060010020A81600206801002099
:10568000001400205001002074010020700100204F
:1056900004ED00E000000000000054545220524588
:1056A0004747455300303132333435363738394186
:1056B0004243444546000000D85600080000002040
:1056C000F00100006808000874570008F00100208D
:1056D000E8640000C433000811847A030A680901F1
:1056E000020304060708090CA91079245123100E9F
:1056F0000341803F041C03F402496CA11C4C4C3153
:105700000412321A53083A53081A33041A34041A8A
:1057100035041A360412371C706F320412361232F6
:1057200012C816BC024F757413496E1462616C1472
:105730006D636C1461726D1466636E147069741B12
:1057400067690C13726914616D721C6370740C12BA
:105750006D1A5018190D0A22768D01731AAA0109C3
:105760002A9340113031323334353637383941429B
:045770004344454623
:040000050800018965
:00000001FF
